{
  "_format": "hh3-artifact-1",
  "contractName": "EscrowSystem",
  "sourceName": "contracts/escrow.sol",
  "abi": [
    {
      "inputs": [
        {
          "internalType": "uint256",
          "name": "_id",
          "type": "uint256"
        }
      ],
      "name": "confirmDelivery",
      "outputs": [],
      "stateMutability": "nonpayable",
      "type": "function"
    },
    {
      "inputs": [
        {
          "internalType": "uint256",
          "name": "_id",
          "type": "uint256"
        }
      ],
      "name": "deposit",
      "outputs": [],
      "stateMutability": "payable",
      "type": "function"
    },
    {
      "inputs": [
        {
          "internalType": "address",
          "name": "_buyer",
          "type": "address"
        },
        {
          "internalType": "address",
          "name": "_seller",
          "type": "address"
        },
        {
          "internalType": "uint256",
          "name": "_amount",
          "type": "uint256"
        }
      ],
      "name": "newTransactions",
      "outputs": [
        {
          "internalType": "uint256",
          "name": "",
          "type": "uint256"
        }
      ],
      "stateMutability": "nonpayable",
      "type": "function"
    },
    {
      "inputs": [
        {
          "internalType": "uint256",
          "name": "_id",
          "type": "uint256"
        }
      ],
      "name": "releaseFunds",
      "outputs": [],
      "stateMutability": "nonpayable",
      "type": "function"
    },
    {
      "inputs": [],
      "name": "txCounter",
      "outputs": [
        {
          "internalType": "uint256",
          "name": "",
          "type": "uint256"
        }
      ],
      "stateMutability": "view",
      "type": "function"
    },
    {
      "inputs": [
        {
          "internalType": "uint256",
          "name": "",
          "type": "uint256"
        }
      ],
      "name": "txStorage",
      "outputs": [
        {
          "internalType": "address",
          "name": "buyer",
          "type": "address"
        },
        {
          "internalType": "address",
          "name": "seller",
          "type": "address"
        },
        {
          "internalType": "uint256",
          "name": "amount",
          "type": "uint256"
        },
        {
          "internalType": "enum EscrowSystem.SystemStatus",
          "name": "status",
          "type": "uint8"
        },
        {
          "internalType": "bool",
          "name": "exists",
          "type": "bool"
        }
      ],
      "stateMutability": "view",
      "type": "function"
    }
  ],
  "bytecode": "0x6080604052348015600e575f5ffd5b5061089a8061001c5f395ff3fe608060405260043610610054575f3560e01c8063385dbdf8146100585780634d68282f146100cb57806353ec9d58146100ec57806374f079b814610119578063b6b55f251461012e578063fd84cb9714610141575b5f5ffd5b348015610063575f5ffd5b506100b1610072366004610749565b5f6020819052908152604090208054600182015460028301546003909301546001600160a01b0392831693919092169160ff8082169161010090041685565b6040516100c2959493929190610774565b60405180910390f35b3480156100d6575f5ffd5b506100ea6100e5366004610749565b610160565b005b3480156100f7575f5ffd5b5061010b6101063660046107e2565b61035f565b6040519081526020016100c2565b348015610124575f5ffd5b5061010b60015481565b6100ea61013c366004610749565b610448565b34801561014c575f5ffd5b506100ea61015b366004610749565b6105f0565b5f818152602081905260409020811580159061017e57506001548211155b6101a35760405162461bcd60e51b815260040161019a9061081c565b60405180910390fd5b6003810154610100900460ff166101f85760405162461bcd60e51b8152602060048201526019602482015278151c985b9cd858dd1a5bdb88191bd95cdb89dd08195e1a5cdd603a1b604482015260640161019a565b600260038083015460ff169081111561021357610213610760565b146102555760405162461bcd60e51b81526020600482015260126024820152714177616974696e672064656c69657665727960701b604482015260640161019a565b60018101546001600160a01b031633146102b15760405162461bcd60e51b815260206004820152601f60248201527f4f6e6c792073656c6c65722063616e2072656365697665207061796d656e7400604482015260640161019a565b6003818101805460ff19169091179055600181015460028201546040515f926001600160a01b031691908381818185875af1925050503d805f8114610311576040519150601f19603f3d011682016040523d82523d5f602084013e610316565b606091505b505090508061035a5760405162461bcd60e51b815260206004820152601060248201526f151c985b9cd859995c8819985a5b195960821b604482015260640161019a565b505050565b600180545f918261036f83610840565b90915550506040805160a0810182526001600160a01b03808716825285166020820152908101839052606081015f81526001602091820181905280545f908152808352604090819020845181546001600160a01b03199081166001600160a01b0392831617835594860151828501805490961691161790935583015160028301556060830151600380840180549293909260ff191691849081111561041657610416610760565b021790555060809190910151600390910180549115156101000261ff0019909216919091179055506001549392505050565b5f818152602081905260409020811580159061046657506001548211155b6104825760405162461bcd60e51b815260040161019a9061081c565b6003810154610100900460ff166104db5760405162461bcd60e51b815260206004820152601a60248201527f205472616e73616374696f6e20646f65736e2774206578697374000000000000604482015260640161019a565b80546001600160a01b031633146105345760405162461bcd60e51b815260206004820152601b60248201527f4f6e6c792062757965722063616e206d616b65206465706f7369740000000000604482015260640161019a565b8060020154341461057b5760405162461bcd60e51b815260206004820152601160248201527015dc9bdb99c8185b5bdd5b9d081cd95b9d607a1b604482015260640161019a565b5f60038083015460ff169081111561059557610595610760565b146105d65760405162461bcd60e51b8152602060048201526011602482015270105b1c9958591e4811195c1bdcda5d1959607a1b604482015260640161019a565b6003810180546001919060ff191682805b02179055505050565b5f818152602081905260409020811580159061060e57506001548211155b61062a5760405162461bcd60e51b815260040161019a9061081c565b6003810154610100900460ff1661067f5760405162461bcd60e51b8152602060048201526019602482015278151c985b9cd858dd1a5bdb88191bd95cdb89dd08195e1a5cdd603a1b604482015260640161019a565b80546001600160a01b031633146106d85760405162461bcd60e51b815260206004820181905260248201527f4f6e6c792062757965722063616e20636f6e666972726d2064656c6976657279604482015260640161019a565b600160038083015460ff16908111156106f3576106f3610760565b146107335760405162461bcd60e51b815260206004820152601060248201526f105dd85a5d1a5b99c819195c1bdcda5d60821b604482015260640161019a565b6003810180546002919060ff19166001836105e7565b5f60208284031215610759575f5ffd5b5035919050565b634e487b7160e01b5f52602160045260245ffd5b6001600160a01b038681168252851660208201526040810184905260a08101600484106107af57634e487b7160e01b5f52602160045260245ffd5b83606083015282151560808301529695505050505050565b80356001600160a01b03811681146107dd575f5ffd5b919050565b5f5f5f606084860312156107f4575f5ffd5b6107fd846107c7565b925061080b602085016107c7565b929592945050506040919091013590565b6020808252600a9082015269125b9d985b1a5908125160b21b604082015260600190565b5f6001820161085d57634e487b7160e01b5f52601160045260245ffd5b506001019056fea2646970667358221220cb1233602669b4fc4706f7c9a35b62ee262951dd9884c736516ce21238aa0f5764736f6c634300081c0033",
  "linkReferences": {},
  "deployedLinkReferences": {},
  "immutableReferences": {},
  "inputSourceName": "project/contracts/escrow.sol",
  "buildInfoId": "solc-0_8_28-76556d021f09e2963817e236d7c69cc7816237ed"
}