{
  "_format": "hh3-artifact-1",
  "contractName": "basicEscrow",
  "sourceName": "contracts/escrow/contracts/Escrow.sol",
  "abi": [
    {
      "inputs": [
        {
          "internalType": "address",
          "name": "_seller",
          "type": "address"
        },
        {
          "internalType": "address",
          "name": "_owner",
          "type": "address"
        }
      ],
      "stateMutability": "nonpayable",
      "type": "constructor"
    },
    {
      "inputs": [],
      "name": "buyer",
      "outputs": [
        {
          "internalType": "address",
          "name": "",
          "type": "address"
        }
      ],
      "stateMutability": "view",
      "type": "function"
    },
    {
      "inputs": [],
      "name": "confirmDelivery",
      "outputs": [],
      "stateMutability": "nonpayable",
      "type": "function"
    },
    {
      "inputs": [],
      "name": "deposit",
      "outputs": [],
      "stateMutability": "payable",
      "type": "function"
    },
    {
      "inputs": [],
      "name": "fundsRefund",
      "outputs": [],
      "stateMutability": "nonpayable",
      "type": "function"
    },
    {
      "inputs": [],
      "name": "fundsRelease",
      "outputs": [],
      "stateMutability": "nonpayable",
      "type": "function"
    },
    {
      "inputs": [],
      "name": "owner",
      "outputs": [
        {
          "internalType": "address",
          "name": "",
          "type": "address"
        }
      ],
      "stateMutability": "view",
      "type": "function"
    },
    {
      "inputs": [],
      "name": "seller",
      "outputs": [
        {
          "internalType": "address",
          "name": "",
          "type": "address"
        }
      ],
      "stateMutability": "view",
      "type": "function"
    },
    {
      "inputs": [],
      "name": "state",
      "outputs": [
        {
          "internalType": "enum basicEscrow.EscrowState",
          "name": "",
          "type": "uint8"
        }
      ],
      "stateMutability": "view",
      "type": "function"
    }
  ],
  "bytecode": "0x608060405234801561000f575f5ffd5b506040516112c73803806112c783398181016040528101906100319190610377565b335f5f6101000a81548173ffffffffffffffffffffffffffffffffffffffff021916908373ffffffffffffffffffffffffffffffffffffffff1602179055505f73ffffffffffffffffffffffffffffffffffffffff168273ffffffffffffffffffffffffffffffffffffffff16036100de576040517f08c379a00000000000000000000000000000000000000000000000000000000081526004016100d59061040f565b60405180910390fd5b5f5f9054906101000a900473ffffffffffffffffffffffffffffffffffffffff1673ffffffffffffffffffffffffffffffffffffffff168273ffffffffffffffffffffffffffffffffffffffff160361016c576040517f08c379a000000000000000000000000000000000000000000000000000000000815260040161016390610477565b60405180910390fd5b5f73ffffffffffffffffffffffffffffffffffffffff168173ffffffffffffffffffffffffffffffffffffffff16036101da576040517f08c379a00000000000000000000000000000000000000000000000000000000081526004016101d1906104df565b60405180910390fd5b5f5f9054906101000a900473ffffffffffffffffffffffffffffffffffffffff1673ffffffffffffffffffffffffffffffffffffffff168173ffffffffffffffffffffffffffffffffffffffff1603610268576040517f08c379a000000000000000000000000000000000000000000000000000000000815260040161025f90610547565b60405180910390fd5b8160015f6101000a81548173ffffffffffffffffffffffffffffffffffffffff021916908373ffffffffffffffffffffffffffffffffffffffff1602179055508060025f6101000a81548173ffffffffffffffffffffffffffffffffffffffff021916908373ffffffffffffffffffffffffffffffffffffffff1602179055505f600260146101000a81548160ff0219169083600281111561030d5761030c610565565b5b02179055505050610592565b5f5ffd5b5f73ffffffffffffffffffffffffffffffffffffffff82169050919050565b5f6103468261031d565b9050919050565b6103568161033c565b8114610360575f5ffd5b50565b5f815190506103718161034d565b92915050565b5f5f6040838503121561038d5761038c610319565b5b5f61039a85828601610363565b92505060206103ab85828601610363565b9150509250929050565b5f82825260208201905092915050565b7f53656c6c65722063616e6e6f74206265207a65726f00000000000000000000005f82015250565b5f6103f96015836103b5565b9150610404826103c5565b602082019050919050565b5f6020820190508181035f830152610426816103ed565b9050919050565b7f53656c6c65722063616e6e6f74206265206275796572000000000000000000005f82015250565b5f6104616016836103b5565b915061046c8261042d565b602082019050919050565b5f6020820190508181035f83015261048e81610455565b9050919050565b7f4f776e65722063616e6e6f74206265207a65726f0000000000000000000000005f82015250565b5f6104c96014836103b5565b91506104d482610495565b602082019050919050565b5f6020820190508181035f8301526104f6816104bd565b9050919050565b7f4f776e65722063616e6e6f7420626520627579657200000000000000000000005f82015250565b5f6105316015836103b5565b915061053c826104fd565b602082019050919050565b5f6020820190508181035f83015261055e81610525565b9050919050565b7f4e487b71000000000000000000000000000000000000000000000000000000005f52602160045260245ffd5b610d288061059f5f395ff3fe60806040526004361061007a575f3560e01c80638da5cb5b1161004d5780638da5cb5b146100fe578063bc474d0a14610128578063c19d93fb1461013e578063d0e30db0146101685761007a565b806308551a531461007e5780635e10177b146100a85780637150d8ae146100be578063871d0734146100e8575b5f5ffd5b348015610089575f5ffd5b50610092610172565b60405161009f919061082d565b60405180910390f35b3480156100b3575f5ffd5b506100bc610197565b005b3480156100c9575f5ffd5b506100d26102c7565b6040516100df919061082d565b60405180910390f35b3480156100f3575f5ffd5b506100fc6102eb565b005b348015610109575f5ffd5b50610112610498565b60405161011f919061082d565b60405180910390f35b348015610133575f5ffd5b5061013c6104bd565b005b348015610149575f5ffd5b50610152610669565b60405161015f91906108b9565b60405180910390f35b61017061067c565b005b60015f9054906101000a900473ffffffffffffffffffffffffffffffffffffffff1681565b5f5f9054906101000a900473ffffffffffffffffffffffffffffffffffffffff1673ffffffffffffffffffffffffffffffffffffffff163373ffffffffffffffffffffffffffffffffffffffff1614610225576040517f08c379a000000000000000000000000000000000000000000000000000000000815260040161021c9061092c565b60405180910390fd5b6001600281111561023957610238610846565b5b600260149054906101000a900460ff16600281111561025b5761025a610846565b5b1461029b576040517f08c379a000000000000000000000000000000000000000000000000000000000815260040161029290610994565b60405180910390fd5b60028060146101000a81548160ff021916908360028111156102c0576102bf610846565b5b0217905550565b5f5f9054906101000a900473ffffffffffffffffffffffffffffffffffffffff1681565b60025f9054906101000a900473ffffffffffffffffffffffffffffffffffffffff1673ffffffffffffffffffffffffffffffffffffffff163373ffffffffffffffffffffffffffffffffffffffff161461037a576040517f08c379a0000000000000000000000000000000000000000000000000000000008152600401610371906109fc565b60405180910390fd5b60028081111561038d5761038c610846565b5b600260149054906101000a900460ff1660028111156103af576103ae610846565b5b146103ef576040517f08c379a00000000000000000000000000000000000000000000000000000000081526004016103e690610a64565b60405180910390fd5b5f4711610431576040517f08c379a000000000000000000000000000000000000000000000000000000000815260040161042890610acc565b60405180910390fd5b60015f9054906101000a900473ffffffffffffffffffffffffffffffffffffffff1673ffffffffffffffffffffffffffffffffffffffff166108fc4790811502906040515f60405180830381858888f19350505050158015610495573d5f5f3e3d5ffd5b50565b60025f9054906101000a900473ffffffffffffffffffffffffffffffffffffffff1681565b60025f9054906101000a900473ffffffffffffffffffffffffffffffffffffffff1673ffffffffffffffffffffffffffffffffffffffff163373ffffffffffffffffffffffffffffffffffffffff161461054c576040517f08c379a000000000000000000000000000000000000000000000000000000000815260040161054390610b34565b60405180910390fd5b60028081111561055f5761055e610846565b5b600260149054906101000a900460ff16600281111561058157610580610846565b5b146105c1576040517f08c379a00000000000000000000000000000000000000000000000000000000081526004016105b890610a64565b60405180910390fd5b5f4711610603576040517f08c379a00000000000000000000000000000000000000000000000000000000081526004016105fa90610b9c565b60405180910390fd5b5f5f9054906101000a900473ffffffffffffffffffffffffffffffffffffffff1673ffffffffffffffffffffffffffffffffffffffff166108fc4790811502906040515f60405180830381858888f19350505050158015610666573d5f5f3e3d5ffd5b50565b600260149054906101000a900460ff1681565b5f5f9054906101000a900473ffffffffffffffffffffffffffffffffffffffff1673ffffffffffffffffffffffffffffffffffffffff163373ffffffffffffffffffffffffffffffffffffffff161461070a576040517f08c379a000000000000000000000000000000000000000000000000000000000815260040161070190610c04565b60405180910390fd5b5f600281111561071d5761071c610846565b5b600260149054906101000a900460ff16600281111561073f5761073e610846565b5b1461077f576040517f08c379a000000000000000000000000000000000000000000000000000000000815260040161077690610c6c565b60405180910390fd5b5f34116107c1576040517f08c379a00000000000000000000000000000000000000000000000000000000081526004016107b890610cd4565b60405180910390fd5b6001600260146101000a81548160ff021916908360028111156107e7576107e6610846565b5b0217905550565b5f73ffffffffffffffffffffffffffffffffffffffff82169050919050565b5f610817826107ee565b9050919050565b6108278161080d565b82525050565b5f6020820190506108405f83018461081e565b92915050565b7f4e487b71000000000000000000000000000000000000000000000000000000005f52602160045260245ffd5b6003811061088457610883610846565b5b50565b5f81905061089482610873565b919050565b5f6108a382610887565b9050919050565b6108b381610899565b82525050565b5f6020820190506108cc5f8301846108aa565b92915050565b5f82825260208201905092915050565b7f4f6e6c79207468652062757965722063616e20636f6e6669726d0000000000005f82015250565b5f610916601a836108d2565b9150610921826108e2565b602082019050919050565b5f6020820190508181035f8301526109438161090a565b9050919050565b7f4e6f74206177616974696e6700000000000000000000000000000000000000005f82015250565b5f61097e600c836108d2565b91506109898261094a565b602082019050919050565b5f6020820190508181035f8301526109ab81610972565b9050919050565b7f4f6e6c7920746865206f776e65722063616e2072656c656173652066756e64735f82015250565b5f6109e66020836108d2565b91506109f1826109b2565b602082019050919050565b5f6020820190508181035f830152610a13816109da565b9050919050565b7f4e6f7420636f6d706c65746500000000000000000000000000000000000000005f82015250565b5f610a4e600c836108d2565b9150610a5982610a1a565b602082019050919050565b5f6020820190508181035f830152610a7b81610a42565b9050919050565b7f4e6f2066756e647320746f2072656c65617365000000000000000000000000005f82015250565b5f610ab66013836108d2565b9150610ac182610a82565b602082019050919050565b5f6020820190508181035f830152610ae381610aaa565b9050919050565b7f4f6e6c7920746865206f776e65722063616e20726566756e642066756e6473005f82015250565b5f610b1e601f836108d2565b9150610b2982610aea565b602082019050919050565b5f6020820190508181035f830152610b4b81610b12565b9050919050565b7f4e6f2066756e647320746f20726566756e6400000000000000000000000000005f82015250565b5f610b866012836108d2565b9150610b9182610b52565b602082019050919050565b5f6020820190508181035f830152610bb381610b7a565b9050919050565b7f4f6e6c79207468652062757965722063616e206465706f7369742045746800005f82015250565b5f610bee601e836108d2565b9150610bf982610bba565b602082019050919050565b5f6020820190508181035f830152610c1b81610be2565b9050919050565b7f5061796d656e7420616c726561647920726563656976656400000000000000005f82015250565b5f610c566018836108d2565b9150610c6182610c22565b602082019050919050565b5f6020820190508181035f830152610c8381610c4a565b9050919050565b7f4d7573742073656e6420457468000000000000000000000000000000000000005f82015250565b5f610cbe600d836108d2565b9150610cc982610c8a565b602082019050919050565b5f6020820190508181035f830152610ceb81610cb2565b905091905056fea2646970667358221220b6d53a392f620ec2778cbeafbc2f57eacaa6eda213ef11edacc36d8c1356ec8364736f6c634300081c0033",
  "linkReferences": {},
  "deployedLinkReferences": {},
  "immutableReferences": {},
  "inputSourceName": "project/contracts/escrow/contracts/Escrow.sol",
  "buildInfoId": "solc-0_8_28-90a9f09f6a4f098ca55bdce3293f36afd461b7cb"
}