{
  "_format": "hh3-artifact-1",
  "contractName": "TimeVault",
  "sourceName": "contracts/time.sol",
  "abi": [
    {
      "inputs": [
        {
          "internalType": "uint256",
          "name": "vaultTime",
          "type": "uint256"
        }
      ],
      "name": "depositVault",
      "outputs": [],
      "stateMutability": "payable",
      "type": "function"
    },
    {
      "inputs": [
        {
          "internalType": "address",
          "name": "",
          "type": "address"
        }
      ],
      "name": "hasWithdrawn",
      "outputs": [
        {
          "internalType": "bool",
          "name": "",
          "type": "bool"
        }
      ],
      "stateMutability": "view",
      "type": "function"
    },
    {
      "inputs": [
        {
          "internalType": "address",
          "name": "",
          "type": "address"
        }
      ],
      "name": "vault",
      "outputs": [
        {
          "internalType": "address",
          "name": "user",
          "type": "address"
        },
        {
          "internalType": "uint256",
          "name": "vaultTime",
          "type": "uint256"
        },
        {
          "internalType": "uint256",
          "name": "ethAmount",
          "type": "uint256"
        },
        {
          "internalType": "bool",
          "name": "isActive",
          "type": "bool"
        }
      ],
      "stateMutability": "view",
      "type": "function"
    },
    {
      "inputs": [],
      "name": "withdrawSavings",
      "outputs": [],
      "stateMutability": "nonpayable",
      "type": "function"
    }
  ],
  "bytecode": "0x6080604052348015600e575f5ffd5b506105188061001c5f395ff3fe60806040526004361061003e575f3560e01c80635a02ec19146100425780635e2c19db146100575780638fa805991461009a578063f815c03d146100ae575b5f5ffd5b610055610050366004610479565b610127565b005b348015610062575f5ffd5b50610085610071366004610490565b60016020525f908152604090205460ff1681565b60405190151581526020015b60405180910390f35b3480156100a5575f5ffd5b506100556102ab565b3480156100b9575f5ffd5b506100fb6100c8366004610490565b5f6020819052908152604090208054600182015460028301546003909301546001600160a01b0390921692909160ff1684565b604080516001600160a01b03909516855260208501939093529183015215156060820152608001610091565b335f9081526020819052604090206003015460ff16156101875760405162461bcd60e51b815260206004820152601660248201527512185cc8185b1c9958591e4819195c1bdcda5d1a595960521b60448201526064015b60405180910390fd5b60408051608081018252338082526020808301858152348486019081526001606086018181525f9586529385905295909320935184546001600160a01b0319166001600160a01b03909116178455519383019390935551600282015590516003909101805460ff191691151591909117905561020542610e106104bd565b811161023f5760405162461bcd60e51b8152602060048201526009602482015268546f6f204561726c7960b81b604482015260640161017e565b335f908152602081905260409020600301805460ff19166001179055346102a85760405162461bcd60e51b815260206004820152601d60248201527f457468206d7573742062652067726561746572207468616e207a65726f000000604482015260640161017e565b50565b335f908152602081905260409020600101544210156102fe5760405162461bcd60e51b815260206004820152600f60248201526e616363657373206772616e7465642160881b604482015260640161017e565b335f9081526001602052604090205460ff161561035d5760405162461bcd60e51b815260206004820152601760248201527f5769746864726177616c20616c7265616479206d616465000000000000000000604482015260640161017e565b335f908152602081905260409020600201546103b25760405162461bcd60e51b8152602060048201526014602482015273496e73756666696369656e742062616c616e636560601b604482015260640161017e565b335f81815260208181526040808320600281018054908590556001808552838620805460ff19908116909217905593859052600390910180549093169092555190929083908381818185875af1925050503d805f811461042d576040519150601f19603f3d011682016040523d82523d5f602084013e610432565b606091505b50509050806104755760405162461bcd60e51b815260206004820152600f60248201526e151c985b9cd9995c8819985a5b1959608a1b604482015260640161017e565b5050565b5f60208284031215610489575f5ffd5b5035919050565b5f602082840312156104a0575f5ffd5b81356001600160a01b03811681146104b6575f5ffd5b9392505050565b808201808211156104dc57634e487b7160e01b5f52601160045260245ffd5b9291505056fea26469706673582212207a5e26419b197e1a7aeca663e88a25e89f0cd44ddcc124146dd518465f1730fd64736f6c634300081c0033",
  "linkReferences": {},
  "deployedLinkReferences": {},
  "immutableReferences": {},
  "inputSourceName": "project/contracts/time.sol",
  "buildInfoId": "solc-0_8_28-826e89ed4ed0d8c6e79ccc41597ce7515278127f"
}