{
  "_format": "hh3-artifact-1",
  "contractName": "MileStonePayment",
  "sourceName": "contracts/client.sol",
  "abi": [
    {
      "inputs": [
        {
          "internalType": "uint256",
          "name": "_id",
          "type": "uint256"
        }
      ],
      "name": "confirmMileStone",
      "outputs": [],
      "stateMutability": "nonpayable",
      "type": "function"
    },
    {
      "inputs": [
        {
          "internalType": "address",
          "name": "_freelancer",
          "type": "address"
        },
        {
          "internalType": "uint256",
          "name": "_mileStones",
          "type": "uint256"
        },
        {
          "internalType": "uint256",
          "name": "_ethPerMileStone",
          "type": "uint256"
        }
      ],
      "name": "createJob",
      "outputs": [
        {
          "internalType": "uint256",
          "name": "",
          "type": "uint256"
        }
      ],
      "stateMutability": "payable",
      "type": "function"
    },
    {
      "inputs": [],
      "name": "mileCounter",
      "outputs": [
        {
          "internalType": "uint256",
          "name": "",
          "type": "uint256"
        }
      ],
      "stateMutability": "view",
      "type": "function"
    },
    {
      "inputs": [
        {
          "internalType": "uint256",
          "name": "_id",
          "type": "uint256"
        }
      ],
      "name": "tickMileStone",
      "outputs": [],
      "stateMutability": "nonpayable",
      "type": "function"
    }
  ],
  "bytecode": "0x6080604052348015600e575f5ffd5b506104888061001c5f395ff3fe60806040526004361061003e575f3560e01c80633b8e817514610042578063d8033fa214610069578063e035347d1461008a578063f043841b1461009d575b5f5ffd5b34801561004d575f5ffd5b5061005760015481565b60405190815260200160405180910390f35b348015610074575f5ffd5b506100886100833660046103b9565b6100bc565b005b6100576100983660046103d0565b610221565b3480156100a8575f5ffd5b506100886100b73660046103b9565b6102db565b5f81815260208190526040902080546001600160a01b031633146101365760405162461bcd60e51b815260206004820152602660248201527f4f6e6c7920636c69656e7420746861742063616e20636f6e6672696d206d696c6044820152656573746f6e6560d01b60648201526084015b60405180910390fd5b600581015460ff16156101835760405162461bcd60e51b8152602060048201526015602482015274129bd888185b1c9958591e4818dbdb5c1b195d1959605a1b604482015260640161012d565b600181015460048201546040515f926001600160a01b031691908381818185875af1925050503d805f81146101d3576040519150601f19603f3d011682016040523d82523d5f602084013e6101d8565b606091505b505090508061021c5760405162461bcd60e51b815260206004820152601060248201526f151c985b9cd859995c8819985a5b195960821b604482015260640161012d565b505050565b600180545f918261023183610421565b90915550506040805160c0810182523381526001600160a01b0395861660208083019182528284019687525f606084018181526080850197885260a08501828152600180548452938390529590912093518454908a166001600160a01b03199182161785559251848301805491909a1693169290921790975594516002820155935160038501559151600484015550516005909101805491151560ff199092169190911790555490565b5f81815260208190526040902060018101546001600160a01b0316331461034f5760405162461bcd60e51b815260206004820152602260248201527f4f6e6c7920667265656c616e6365722063616e207469636b206d696c6553746f6044820152616e6560f01b606482015260840161012d565b600581015460ff161561039c5760405162461bcd60e51b8152602060048201526015602482015274129bd888185b1c9958591e4818dbdb5c1b195d1959605a1b604482015260640161012d565b6001816002015f8282546103b09190610439565b90915550505050565b5f602082840312156103c9575f5ffd5b5035919050565b5f5f5f606084860312156103e2575f5ffd5b83356001600160a01b03811681146103f8575f5ffd5b95602085013595506040909401359392505050565b634e487b7160e01b5f52601160045260245ffd5b5f600182016104325761043261040d565b5060010190565b8082018082111561044c5761044c61040d565b9291505056fea2646970667358221220ed69435522902cef48068fdf51ab872b0d88b5462bfbf6b403a2d916ae20174364736f6c634300081c0033",
  "linkReferences": {},
  "deployedLinkReferences": {},
  "immutableReferences": {},
  "inputSourceName": "project/contracts/client.sol",
  "buildInfoId": "solc-0_8_28-ecf55608c8684e91be74a4cf0f57b2e98ef3a5af"
}