{
  "_format": "hh3-artifact-1",
  "contractName": "Crowdfunding",
  "sourceName": "contracts/Crowfunding.sol",
  "abi": [
    {
      "inputs": [
        {
          "internalType": "uint256",
          "name": "_targetAmount",
          "type": "uint256"
        },
        {
          "internalType": "uint256",
          "name": "_durationSeconds",
          "type": "uint256"
        }
      ],
      "stateMutability": "payable",
      "type": "constructor"
    },
    {
      "anonymous": false,
      "inputs": [
        {
          "indexed": true,
          "internalType": "address",
          "name": "contributor",
          "type": "address"
        },
        {
          "indexed": false,
          "internalType": "uint256",
          "name": "amount",
          "type": "uint256"
        }
      ],
      "name": "Contributed",
      "type": "event"
    },
    {
      "anonymous": false,
      "inputs": [
        {
          "indexed": false,
          "internalType": "uint256",
          "name": "totalAmount",
          "type": "uint256"
        }
      ],
      "name": "GoalReached",
      "type": "event"
    },
    {
      "anonymous": false,
      "inputs": [
        {
          "indexed": true,
          "internalType": "address",
          "name": "contributor",
          "type": "address"
        },
        {
          "indexed": false,
          "internalType": "uint256",
          "name": "amount",
          "type": "uint256"
        }
      ],
      "name": "RefundClaimed",
      "type": "event"
    },
    {
      "inputs": [
        {
          "internalType": "uint256",
          "name": "_amount",
          "type": "uint256"
        }
      ],
      "name": "contribute",
      "outputs": [],
      "stateMutability": "payable",
      "type": "function"
    },
    {
      "inputs": [
        {
          "internalType": "address",
          "name": "",
          "type": "address"
        }
      ],
      "name": "contributions",
      "outputs": [
        {
          "internalType": "uint256",
          "name": "",
          "type": "uint256"
        }
      ],
      "stateMutability": "view",
      "type": "function"
    },
    {
      "inputs": [],
      "name": "deadline",
      "outputs": [
        {
          "internalType": "uint256",
          "name": "",
          "type": "uint256"
        }
      ],
      "stateMutability": "view",
      "type": "function"
    },
    {
      "inputs": [],
      "name": "owner",
      "outputs": [
        {
          "internalType": "address",
          "name": "",
          "type": "address"
        }
      ],
      "stateMutability": "view",
      "type": "function"
    },
    {
      "inputs": [],
      "name": "refundButtom",
      "outputs": [],
      "stateMutability": "nonpayable",
      "type": "function"
    },
    {
      "inputs": [],
      "name": "targetAmount",
      "outputs": [
        {
          "internalType": "uint256",
          "name": "",
          "type": "uint256"
        }
      ],
      "stateMutability": "view",
      "type": "function"
    },
    {
      "inputs": [],
      "name": "totalRaised",
      "outputs": [
        {
          "internalType": "uint256",
          "name": "",
          "type": "uint256"
        }
      ],
      "stateMutability": "view",
      "type": "function"
    },
    {
      "inputs": [],
      "name": "withdrawFunds",
      "outputs": [],
      "stateMutability": "nonpayable",
      "type": "function"
    }
  ],
  "bytecode": "0x60e060405260405161093e38038061093e83398101604081905261002291610040565b3360805260a08290526100358142610062565b60c052506100879050565b5f5f60408385031215610051575f5ffd5b505080516020909101519092909150565b8082018082111561008157634e487b7160e01b5f52601160045260245ffd5b92915050565b60805160a05160c05161085d6100e15f395f818160a40152818161023c01528181610427015261062401525f8181610174015281816102b8015261049701525f8181610129015281816101c80152610341015261085d5ff3fe608060405260043610610079575f3560e01c80638da5cb5b1161004c5780638da5cb5b14610118578063953b8fb814610163578063c1cbbca714610196578063c5c4744c146101a9575f5ffd5b806324600fc31461007d57806329dcb0cf146100935780633c44200c146100d957806342e94c90146100ed575b5f5ffd5b348015610088575f5ffd5b506100916101bd565b005b34801561009e575f5ffd5b506100c67f000000000000000000000000000000000000000000000000000000000000000081565b6040519081526020015b60405180910390f35b3480156100e4575f5ffd5b50610091610425565b3480156100f8575f5ffd5b506100c66101073660046107be565b60016020525f908152604090205481565b348015610123575f5ffd5b5061014b7f000000000000000000000000000000000000000000000000000000000000000081565b6040516001600160a01b0390911681526020016100d0565b34801561016e575f5ffd5b506100c67f000000000000000000000000000000000000000000000000000000000000000081565b6100916101a43660046107eb565b610622565b3480156101b4575f5ffd5b506100c65f5481565b336001600160a01b037f0000000000000000000000000000000000000000000000000000000000000000161461023a5760405162461bcd60e51b815260206004820152601b60248201527f4f6e6c7920746865206f776e65722063616e207769746864726177000000000060448201526064015b60405180910390fd5b7f00000000000000000000000000000000000000000000000000000000000000004210156102b65760405162461bcd60e51b815260206004820152602360248201527f5761697420756e74696c2074686520646561646c696e6520746f20776974686460448201526272617760e81b6064820152608401610231565b7f00000000000000000000000000000000000000000000000000000000000000005f5410156103315760405162461bcd60e51b815260206004820152602160248201527f46756e64696e6720676f616c20686173206e6f74206265656e207265616368656044820152601960fa1b6064820152608401610231565b5f80546040516001600160a01b037f00000000000000000000000000000000000000000000000000000000000000001691908381818185875af1925050503d805f8114610399576040519150601f19603f3d011682016040523d82523d5f602084013e61039e565b606091505b50509050806103e85760405162461bcd60e51b815260206004820152601660248201527514185e5bdd5d081d1bc81bdddb995c8819985a5b195960521b6044820152606401610231565b7ffbfd8ab7c24300fa9888cd721c8565a7da56759384781283684dcf7c7c4a846b5f5460405161041a91815260200190565b60405180910390a150565b7f00000000000000000000000000000000000000000000000000000000000000004210156104955760405162461bcd60e51b815260206004820152601860248201527f446561646c696e6520686173206e6f74207265616368656400000000000000006044820152606401610231565b7f00000000000000000000000000000000000000000000000000000000000000005f54106104f75760405162461bcd60e51b815260206004820152600f60248201526e15185c99d95d081058da1a595d9959608a1b6044820152606401610231565b335f90815260016020526040902054806105535760405162461bcd60e51b815260206004820152601960248201527f4261626120596f75204e6f20436f6e74726962757465204e61000000000000006044820152606401610231565b335f818152600160205260408082208290555190919083908381818185875af1925050503d805f81146105a1576040519150601f19603f3d011682016040523d82523d5f602084013e6105a6565b606091505b50509050806105e95760405162461bcd60e51b815260206004820152600f60248201526e151c985b9cd9995c8819985a5b1959608a1b6044820152606401610231565b60405182815233907f358fe4192934d3bf28ae181feda1f4bd08ca67f5e2fad55582cce5eb67304ae99060200160405180910390a25050565b7f000000000000000000000000000000000000000000000000000000000000000042106106915760405162461bcd60e51b815260206004820152601860248201527f46756e64696e6720706572696f642068617320656e64656400000000000000006044820152606401610231565b8034146106f15760405162461bcd60e51b815260206004820152602860248201527f53656e742045544820646f6573206e6f74206d61746368205f616d6f756e7420604482015267185c99dd5b595b9d60c21b6064820152608401610231565b5f341161074c5760405162461bcd60e51b815260206004820152602360248201527f436f6e747269627574696f6e206d75737420626520677265617465722074686160448201526206e20360ec1b6064820152608401610231565b335f908152600160205260408120805434929061076a908490610802565b92505081905550345f5f8282546107819190610802565b909155505060405134815233907f62722348256371b5147820d6cad90c40fd2da1ccee18c3ed52c0bca5a61dbbab9060200160405180910390a250565b5f602082840312156107ce575f5ffd5b81356001600160a01b03811681146107e4575f5ffd5b9392505050565b5f602082840312156107fb575f5ffd5b5035919050565b8082018082111561082157634e487b7160e01b5f52601160045260245ffd5b9291505056fea2646970667358221220578ac7dc5f0695e98c80ff3757012e328e54fcc7a561e0078daff4aa28647b4a64736f6c634300081c0033",
  "linkReferences": {},
  "deployedLinkReferences": {},
  "immutableReferences": {
    "3": [
      {
        "length": 32,
        "start": 297
      },
      {
        "length": 32,
        "start": 456
      },
      {
        "length": 32,
        "start": 833
      }
    ],
    "5": [
      {
        "length": 32,
        "start": 372
      },
      {
        "length": 32,
        "start": 696
      },
      {
        "length": 32,
        "start": 1175
      }
    ],
    "7": [
      {
        "length": 32,
        "start": 164
      },
      {
        "length": 32,
        "start": 572
      },
      {
        "length": 32,
        "start": 1063
      },
      {
        "length": 32,
        "start": 1572
      }
    ]
  },
  "inputSourceName": "project/contracts/Crowfunding.sol",
  "buildInfoId": "solc-0_8_28-f5369441d1d934bd38b48f3b2ff71c2ebd9e9def"
}