{
  "_format": "hh3-artifact-1",
  "contractName": "Todo",
  "sourceName": "contracts/todo.sol",
  "abi": [
    {
      "anonymous": false,
      "inputs": [
        {
          "indexed": false,
          "internalType": "string",
          "name": "text",
          "type": "string"
        },
        {
          "indexed": false,
          "internalType": "uint256",
          "name": "deadline",
          "type": "uint256"
        }
      ],
      "name": "TodoCreated",
      "type": "event"
    },
    {
      "inputs": [
        {
          "internalType": "uint256",
          "name": "_id",
          "type": "uint256"
        }
      ],
      "name": "UpdateTodo",
      "outputs": [],
      "stateMutability": "nonpayable",
      "type": "function"
    },
    {
      "inputs": [
        {
          "internalType": "string",
          "name": "_text",
          "type": "string"
        },
        {
          "internalType": "uint256",
          "name": "_deadline",
          "type": "uint256"
        }
      ],
      "name": "createTodo",
      "outputs": [
        {
          "internalType": "uint256",
          "name": "",
          "type": "uint256"
        }
      ],
      "stateMutability": "nonpayable",
      "type": "function"
    }
  ],
  "bytecode": "0x6080604052348015600e575f5ffd5b5061063d8061001c5f395ff3fe608060405234801561000f575f5ffd5b5060043610610034575f3560e01c80632a8fb18a14610038578063ece28c6c1461004d575b5f5ffd5b61004b610046366004610359565b610072565b005b61006061005b366004610384565b6101b6565b60405190815260200160405180910390f35b5f8111801561008257505f548111155b6100c05760405162461bcd60e51b815260206004820152600a6024820152691a5b9d985b1a59081a5960b21b60448201526064015b60405180910390fd5b5f8181526001602052604081209060038083015460ff16908111156100e7576100e7610439565b146101225760405162461bcd60e51b815260206004820152600b60248201526a4e6f742070656e64696e6760a81b60448201526064016100b7565b60018101546001600160a01b031633146101745760405162461bcd60e51b81526020600482015260136024820152723ab730baba3437b934bd32b21021b0b63632b960691b60448201526064016100b7565b8060040154421115610195576003818101805460ff191690911790556101a5565b60038101805460ff191660011790555b600301805460ff1916600117905550565b5f5f8351116101f45760405162461bcd60e51b815260206004820152600a602482015269115b5c1d1e481d195e1d60b21b60448201526064016100b7565b61020042610258610461565b82116102415760405162461bcd60e51b815260206004820152601060248201526f496e76616c696420646561646c696e6560801b60448201526064016100b7565b5f8054908061024f83610474565b90915550506040805160a0810182525f80548252336020830152918101859052906060820190815260209081018490525f805481526001808352604091829020845181559284015190830180546001600160a01b0319166001600160a01b0390921691909117905582015160028201906102c99082610510565b506060820151816003015f6101000a81548160ff021916908360038111156102f3576102f3610439565b0217905550608082015181600401559050507f022c3fffe570decf2328dbf4f2af598df5112da7e31568af8b927c48276ccae383836040516103369291906105cb565b60405180910390a15f8054908061034c83610474565b9190505590505b92915050565b5f60208284031215610369575f5ffd5b5035919050565b634e487b7160e01b5f52604160045260245ffd5b5f5f60408385031215610395575f5ffd5b823567ffffffffffffffff8111156103ab575f5ffd5b8301601f810185136103bb575f5ffd5b803567ffffffffffffffff8111156103d5576103d5610370565b604051601f8201601f19908116603f0116810167ffffffffffffffff8111828210171561040457610404610370565b60405281815282820160200187101561041b575f5ffd5b816020840160208301375f6020928201830152969401359450505050565b634e487b7160e01b5f52602160045260245ffd5b634e487b7160e01b5f52601160045260245ffd5b808201808211156103535761035361044d565b5f600182016104855761048561044d565b5060010190565b600181811c908216806104a057607f821691505b6020821081036104be57634e487b7160e01b5f52602260045260245ffd5b50919050565b601f82111561050b57805f5260205f20601f840160051c810160208510156104e95750805b601f840160051c820191505b81811015610508575f81556001016104f5565b50505b505050565b815167ffffffffffffffff81111561052a5761052a610370565b61053e81610538845461048c565b846104c4565b6020601f821160018114610570575f83156105595750848201515b5f19600385901b1c1916600184901b178455610508565b5f84815260208120601f198516915b8281101561059f578785015182556020948501946001909201910161057f565b50848210156105bc57868401515f19600387901b60f8161c191681555b50505050600190811b01905550565b604081525f83518060408401528060208601606085015e5f606082850101526060601f19601f830116840101915050826020830152939250505056fea2646970667358221220fc626fb4c4a714a7a21320edb6a367116b08ea121e1795f526bf42d230f8682e64736f6c634300081c0033",
  "linkReferences": {},
  "deployedLinkReferences": {},
  "immutableReferences": {},
  "inputSourceName": "project/contracts/todo.sol",
  "buildInfoId": "solc-0_8_28-1dea80971854511ce292a51db1c18c65102b4187"
}