{
  "_format": "hh3-artifact-1",
  "contractName": "AuctionContract",
  "sourceName": "contracts/Auction.sol",
  "abi": [
    {
      "inputs": [],
      "stateMutability": "nonpayable",
      "type": "constructor"
    },
    {
      "anonymous": false,
      "inputs": [
        {
          "indexed": false,
          "internalType": "uint256",
          "name": "id",
          "type": "uint256"
        }
      ],
      "name": "AuctionEnded",
      "type": "event"
    },
    {
      "anonymous": false,
      "inputs": [
        {
          "indexed": false,
          "internalType": "uint256",
          "name": "id",
          "type": "uint256"
        }
      ],
      "name": "AuctionInitialaized",
      "type": "event"
    },
    {
      "anonymous": false,
      "inputs": [
        {
          "indexed": false,
          "internalType": "address",
          "name": "bidder",
          "type": "address"
        },
        {
          "indexed": false,
          "internalType": "uint256",
          "name": "value",
          "type": "uint256"
        },
        {
          "indexed": false,
          "internalType": "uint256",
          "name": "id",
          "type": "uint256"
        }
      ],
      "name": "BidMade",
      "type": "event"
    },
    {
      "inputs": [],
      "name": "auctionCounter",
      "outputs": [
        {
          "internalType": "uint256",
          "name": "",
          "type": "uint256"
        }
      ],
      "stateMutability": "view",
      "type": "function"
    },
    {
      "inputs": [
        {
          "internalType": "uint256",
          "name": "",
          "type": "uint256"
        }
      ],
      "name": "auctions",
      "outputs": [
        {
          "internalType": "uint256",
          "name": "id",
          "type": "uint256"
        },
        {
          "internalType": "uint256",
          "name": "startingPrice",
          "type": "uint256"
        },
        {
          "internalType": "uint256",
          "name": "highestBid",
          "type": "uint256"
        },
        {
          "internalType": "enum AuctionContract.AuctionStatus",
          "name": "status",
          "type": "uint8"
        },
        {
          "internalType": "address",
          "name": "owner",
          "type": "address"
        },
        {
          "internalType": "address",
          "name": "highestBidder",
          "type": "address"
        },
        {
          "internalType": "uint256",
          "name": "startTime",
          "type": "uint256"
        },
        {
          "internalType": "uint256",
          "name": "duration",
          "type": "uint256"
        }
      ],
      "stateMutability": "view",
      "type": "function"
    },
    {
      "inputs": [
        {
          "internalType": "uint256",
          "name": "",
          "type": "uint256"
        },
        {
          "internalType": "address",
          "name": "",
          "type": "address"
        }
      ],
      "name": "bidRecords",
      "outputs": [
        {
          "internalType": "uint256",
          "name": "",
          "type": "uint256"
        }
      ],
      "stateMutability": "view",
      "type": "function"
    },
    {
      "inputs": [
        {
          "internalType": "uint256",
          "name": "_auctionId",
          "type": "uint256"
        }
      ],
      "name": "bids",
      "outputs": [],
      "stateMutability": "payable",
      "type": "function"
    },
    {
      "inputs": [
        {
          "internalType": "uint256",
          "name": "_price",
          "type": "uint256"
        },
        {
          "internalType": "uint256",
          "name": "_duration",
          "type": "uint256"
        }
      ],
      "name": "createAuction",
      "outputs": [
        {
          "internalType": "uint256",
          "name": "",
          "type": "uint256"
        }
      ],
      "stateMutability": "nonpayable",
      "type": "function"
    },
    {
      "inputs": [
        {
          "internalType": "uint256",
          "name": "_auctionId",
          "type": "uint256"
        }
      ],
      "name": "end",
      "outputs": [],
      "stateMutability": "nonpayable",
      "type": "function"
    },
    {
      "inputs": [
        {
          "internalType": "uint256",
          "name": "_auctionId",
          "type": "uint256"
        }
      ],
      "name": "refund",
      "outputs": [],
      "stateMutability": "nonpayable",
      "type": "function"
    },
    {
      "inputs": [
        {
          "internalType": "uint256",
          "name": "_auctionId",
          "type": "uint256"
        }
      ],
      "name": "startAuction",
      "outputs": [],
      "stateMutability": "nonpayable",
      "type": "function"
    }
  ],
  "bytecode": "0x6080604052348015600e575f5ffd5b50610b4d8061001c5f395ff3fe608060405260043610610079575f3560e01c80634423c5f11161004c5780634423c5f11461010e578063571a26a0146101215780636ce0572e146101a1578063a7e76644146101d7575f5ffd5b80630121683f1461007d578063065de74c146100af5780630ad24528146100d0578063278ecde1146100ef575b5f5ffd5b348015610088575f5ffd5b5061009c6100973660046109f1565b6101eb565b6040519081526020015b60405180910390f35b3480156100ba575f5ffd5b506100ce6100c9366004610a11565b6103e9565b005b3480156100db575f5ffd5b506100ce6100ea366004610a11565b6104bb565b3480156100fa575f5ffd5b506100ce610109366004610a11565b6106bc565b6100ce61011c366004610a11565b6107bb565b34801561012c575f5ffd5b5061018d61013b366004610a11565b600160208190525f918252604090912080549181015460028201546003830154600484015460058501546006909501549394929360ff8316936101009093046001600160a01b03908116939216919088565b6040516100a6989796959493929190610a3c565b3480156101ac575f5ffd5b5061009c6101bb366004610a9f565b600260209081525f928352604080842090915290825290205481565b3480156101e2575f5ffd5b5061009c5f5481565b5f5f83116102405760405162461bcd60e51b815260206004820152601760248201527f4e6f6e207a65726f20707269636520726571756972656400000000000000000060448201526064015b60405180910390fd5b61025882116102835760405162461bcd60e51b815260206004820152600f60248201526e4d696e696d756d203130206d696e7360881b6044820152606401610237565b5f8054908061029183610aec565b91905055506040518061010001604052805f5481526020018481526020018481526020015f60038111156102c7576102c7610a28565b8152602001336001600160a01b031681526020015f6001600160a01b031681526020015f81526020018381525060015f5f5481526020019081526020015f205f820151815f015560208201518160010155604082015181600201556060820151816003015f6101000a81548160ff0219169083600381111561034b5761034b610a28565b02179055506080820151600382018054610100600160a81b0319166101006001600160a01b039384160217905560a08301516004830180546001600160a01b0319169190921617905560c0820151600582015560e0909101516006909101555f546040519081527f1e976b74abc62b0d51a35b0c61270d854634d1d84a09d1195a968c1f192c896b9060200160405180910390a1505f545b92915050565b5f818152600160205260409020600381015461010090046001600160a01b0316331461044a5760405162461bcd60e51b815260206004820152601060248201526f2737ba103cb7bab91020bab1ba34b7b760811b6044820152606401610237565b5f60038083015460ff169081111561046457610464610a28565b146104a25760405162461bcd60e51b815260206004820152600e60248201526d496e76616c69642073746174757360901b6044820152606401610237565b60038101805460ff191660011790554260059091015550565b5f818152600160205260409020600381015461010090046001600160a01b031633146105155760405162461bcd60e51b81526020600482015260096024820152682737ba1037bbb732b960b91b6044820152606401610237565b600160038083015460ff169081111561053057610530610a28565b1461056e5760405162461bcd60e51b815260206004820152600e60248201526d496e76616c69642073746174757360901b6044820152606401610237565b806006015481600501546105829190610b04565b4210156105c55760405162461bcd60e51b8152602060048201526011602482015270105d58dd1a5bdb881b9bdd08195b991959607a1b6044820152606401610237565b60038101805460ff191660029081179091558101541561067e57600381015460028201546040515f9261010090046001600160a01b031691908381818185875af1925050503d805f8114610634576040519150601f19603f3d011682016040523d82523d5f602084013e610639565b606091505b505090508061067c5760405162461bcd60e51b815260206004820152600f60248201526e151c985b9cd9995c8819985a5b1959608a1b6044820152606401610237565b505b5f60028201556040518281527f45806e512b1f4f10e33e8b3cb64d1d11d998d8c554a95e0841fc1c701278bd5d906020015b60405180910390a15050565b5f818152600260209081526040808320338452909152902054806107195760405162461bcd60e51b81526020600482015260146024820152734e6f2066756e647320746f20776974686472617760601b6044820152606401610237565b5f8281526002602090815260408083203380855292528083208390555183908381818185875af1925050503d805f811461076e576040519150601f19603f3d011682016040523d82523d5f602084013e610773565b606091505b50509050806107b65760405162461bcd60e51b815260206004820152600f60248201526e151c985b9cd9995c8819985a5b1959608a1b6044820152606401610237565b505050565b5f8181526001602081905260409091209060038083015460ff16908111156107e5576107e5610a28565b146108285760405162461bcd60e51b815260206004820152601360248201527241756374696f6e206e6f74206f6e676f696e6760681b6044820152606401610237565b8060060154816005015461083c9190610b04565b421061087a5760405162461bcd60e51b815260206004820152600d60248201526c105d58dd1a5bdb88195b991959609a1b6044820152606401610237565b600381015461010090046001600160a01b031633036108d25760405162461bcd60e51b815260206004820152601460248201527313dddb995c881cda1bdd5b19081b9bdd08189a5960621b6044820152606401610237565b5f34116109215760405162461bcd60e51b815260206004820152601e60248201527f56616c75652073686f756c642062652067726561746572207468616e203000006044820152606401610237565b806002015434116109665760405162461bcd60e51b815260206004820152600f60248201526e139bdd081a1a59da195cdd08189a59608a1b6044820152606401610237565b5f8281526002602090815260408083203384529091528120805434929061098e908490610b04565b909155505034600282018190556004820180546001600160a01b031916339081179091556040805191825260208201929092529081018390527fa83fe65d893591fe1c92845e86c5a5907f93f15e28b4e2124db434265822181b906060016106b0565b5f5f60408385031215610a02575f5ffd5b50508035926020909101359150565b5f60208284031215610a21575f5ffd5b5035919050565b634e487b7160e01b5f52602160045260245ffd5b8881526020810188905260408101879052610100810160048710610a6e57634e487b7160e01b5f52602160045260245ffd5b60608201969096526001600160a01b0394851660808201529290931660a083015260c082015260e001529392505050565b5f5f60408385031215610ab0575f5ffd5b8235915060208301356001600160a01b0381168114610acd575f5ffd5b809150509250929050565b634e487b7160e01b5f52601160045260245ffd5b5f60018201610afd57610afd610ad8565b5060010190565b808201808211156103e3576103e3610ad856fea2646970667358221220b0ee87ed380e1b5f1852dd6c016aa9756a0fd0db08df28770a5d2ebf87ba5e3864736f6c634300081c0033",
  "linkReferences": {},
  "deployedLinkReferences": {},
  "immutableReferences": {},
  "inputSourceName": "project/contracts/Auction.sol",
  "buildInfoId": "solc-0_8_28-3cf74ef5ebbec8d20312c408492e0f28103dfdf2"
}