{"abi":[{"type":"constructor","inputs":[{"name":"_token","type":"address","internalType":"address"}],"stateMutability":"nonpayable"},{"type":"function","name":"acceptOwnership","inputs":[],"outputs":[],"stateMutability":"nonpayable"},{"type":"function","name":"deposit","inputs":[{"name":"_unlockTime","type":"uint256","internalType":"uint256"}],"outputs":[],"stateMutability":"payable"},{"type":"function","name":"emergencyWithdraw","inputs":[],"outputs":[{"name":"amount","type":"uint256","internalType":"uint256"}],"stateMutability":"nonpayable"},{"type":"function","name":"ethToUSD","inputs":[{"name":"amount","type":"uint256","internalType":"uint256"}],"outputs":[{"name":"","type":"uint256","internalType":"uint256"}],"stateMutability":"view"},{"type":"function","name":"getActiveVaults","inputs":[{"name":"_user","type":"address","internalType":"address"}],"outputs":[{"name":"activeVaults","type":"uint256[]","internalType":"uint256[]"},{"name":"balances","type":"uint256[]","internalType":"uint256[]"},{"name":"tokenBalances","type":"uint256[]","internalType":"uint256[]"},{"name":"unlockTimes","type":"uint256[]","internalType":"uint256[]"}],"stateMutability":"view"},{"type":"function","name":"getAllVaults","inputs":[{"name":"_user","type":"address","internalType":"address"}],"outputs":[{"name":"","type":"tuple[]","internalType":"struct TimeLockV3.Vault[]","components":[{"name":"balance","type":"uint256","internalType":"uint256"},{"name":"tokenBalance","type":"uint256","internalType":"uint256"},{"name":"unlockTime","type":"uint256","internalType":"uint256"},{"name":"active","type":"bool","internalType":"bool"}]}],"stateMutability":"view"},{"type":"function","name":"getDecimals","inputs":[],"outputs":[{"name":"","type":"uint8","internalType":"uint8"}],"stateMutability":"view"},{"type":"function","name":"getETHUSDPrice","inputs":[],"outputs":[{"name":"","type":"int256","internalType":"int256"}],"stateMutability":"view"},{"type":"function","name":"getTotalBalance","inputs":[{"name":"_user","type":"address","internalType":"address"}],"outputs":[{"name":"total","type":"uint256","internalType":"uint256"}],"stateMutability":"view"},{"type":"function","name":"getUnlockedBalance","inputs":[{"name":"_user","type":"address","internalType":"address"}],"outputs":[{"name":"unlocked","type":"uint256","internalType":"uint256"}],"stateMutability":"view"},{"type":"function","name":"getVault","inputs":[{"name":"_user","type":"address","internalType":"address"},{"name":"_vaultId","type":"uint256","internalType":"uint256"}],"outputs":[{"name":"balance","type":"uint256","internalType":"uint256"},{"name":"tokenBalance","type":"uint256","internalType":"uint256"},{"name":"unlockTime","type":"uint256","internalType":"uint256"},{"name":"active","type":"bool","internalType":"bool"},{"name":"isUnlocked","type":"bool","internalType":"bool"}],"stateMutability":"view"},{"type":"function","name":"getVaultCount","inputs":[{"name":"_user","type":"address","internalType":"address"}],"outputs":[{"name":"","type":"uint256","internalType":"uint256"}],"stateMutability":"view"},{"type":"function","name":"owner","inputs":[],"outputs":[{"name":"","type":"address","internalType":"address"}],"stateMutability":"view"},{"type":"function","name":"pendingOwner","inputs":[],"outputs":[{"name":"","type":"address","internalType":"address"}],"stateMutability":"view"},{"type":"function","name":"token","inputs":[],"outputs":[{"name":"","type":"address","internalType":"contract IErc20"}],"stateMutability":"view"},{"type":"function","name":"transferOwnership","inputs":[{"name":"newOwner","type":"address","internalType":"address"}],"outputs":[],"stateMutability":"nonpayable"},{"type":"function","name":"withdraw","inputs":[{"name":"_vaultId","type":"uint256","internalType":"uint256"}],"outputs":[],"stateMutability":"nonpayable"},{"type":"function","name":"withdrawAll","inputs":[],"outputs":[{"name":"","type":"uint256","internalType":"uint256"}],"stateMutability":"nonpayable"},{"type":"event","name":"Deposited","inputs":[{"name":"user","type":"address","indexed":true,"internalType":"address"},{"name":"vaultId","type":"uint256","indexed":false,"internalType":"uint256"},{"name":"amount","type":"uint256","indexed":false,"internalType":"uint256"},{"name":"unlockTime","type":"uint256","indexed":false,"internalType":"uint256"}],"anonymous":false},{"type":"event","name":"EmergencyWithdrawn","inputs":[{"name":"owner","type":"address","indexed":true,"internalType":"address"},{"name":"amount","type":"uint256","indexed":false,"internalType":"uint256"}],"anonymous":false},{"type":"event","name":"OwnershipTransferStarted","inputs":[{"name":"previousOwner","type":"address","indexed":true,"internalType":"address"},{"name":"newOwner","type":"address","indexed":true,"internalType":"address"}],"anonymous":false},{"type":"event","name":"OwnershipTransferred","inputs":[{"name":"previousOwner","type":"address","indexed":true,"internalType":"address"},{"name":"newOwner","type":"address","indexed":true,"internalType":"address"}],"anonymous":false},{"type":"event","name":"Withdrawn","inputs":[{"name":"user","type":"address","indexed":true,"internalType":"address"},{"name":"vaultId","type":"uint256","indexed":false,"internalType":"uint256"},{"name":"amount","type":"uint256","indexed":false,"internalType":"uint256"}],"anonymous":false}],"bytecode":{"object":"0x60a060405273ce4f29b6a3955fa50b46dfdfae2f6352f16a77bb5f5f6101000a81548173ffffffffffffffffffffffffffffffffffffffff021916908373ffffffffffffffffffffffffffffffffffffffff160217905550348015610062575f5ffd5b50604051613114380380613114833981810160405281019061008491906101af565b8073ffffffffffffffffffffffffffffffffffffffff1660808173ffffffffffffffffffffffffffffffffffffffff1681525050335f5f6101000a81548173ffffffffffffffffffffffffffffffffffffffff021916908373ffffffffffffffffffffffffffffffffffffffff16021790555073694aa1769357215de4fac081bf1f309adc32530660025f6101000a81548173ffffffffffffffffffffffffffffffffffffffff021916908373ffffffffffffffffffffffffffffffffffffffff160217905550506101da565b5f5ffd5b5f73ffffffffffffffffffffffffffffffffffffffff82169050919050565b5f61017e82610155565b9050919050565b61018e81610174565b8114610198575f5ffd5b50565b5f815190506101a981610185565b92915050565b5f602082840312156101c4576101c3610151565b5b5f6101d18482850161019b565b91505092915050565b608051612f146102005f395f81816107b4015281816111640152611d6d0152612f145ff3fe608060405260043610610108575f3560e01c8063b6b55f2511610094578063db2e21bc11610063578063db2e21bc1461038f578063e30c3978146103b9578063f0141d84146103e3578063f2fde38b1461040d578063fc0c546a1461043557610108565b8063b6b55f25146102cd578063bf4b1990146102e9578063d3d3819314610313578063d99d13f51461034f57610108565b806377e1296e116100db57806377e1296e146101eb57806379ba509714610227578063853828b61461023d5780638da5cb5b14610267578063a2e5437c1461029157610108565b8063129de5bf1461010c578063196e609d146101485780632e1a7d4d1461018457806357c57f72146101ac575b5f5ffd5b348015610117575f5ffd5b50610132600480360381019061012d9190611ded565b61045f565b60405161013f9190611e30565b60405180910390f35b348015610153575f5ffd5b5061016e60048036038101906101699190611e73565b610583565b60405161017b9190611e30565b60405180910390f35b34801561018f575f5ffd5b506101aa60048036038101906101a59190611e73565b6105bb565b005b3480156101b7575f5ffd5b506101d260048036038101906101cd9190611ded565b61098d565b6040516101e29493929190611f55565b60405180910390f35b3480156101f6575f5ffd5b50610211600480360381019061020c9190611ded565b610d12565b60405161021e9190611e30565b60405180910390f35b348015610232575f5ffd5b5061023b610d5b565b005b348015610248575f5ffd5b50610251610eea565b60405161025e9190611e30565b60405180910390f35b348015610272575f5ffd5b5061027b6112ee565b6040516102889190611fc3565b60405180910390f35b34801561029c575f5ffd5b506102b760048036038101906102b29190611ded565b611312565b6040516102c491906120f1565b60405180910390f35b6102e760048036038101906102e29190611e73565b6113e2565b005b3480156102f4575f5ffd5b506102fd6115df565b60405161030a9190612129565b60405180910390f35b34801561031e575f5ffd5b5061033960048036038101906103349190611ded565b6116a4565b6040516103469190611e30565b60405180910390f35b34801561035a575f5ffd5b5061037560048036038101906103709190612142565b61176e565b60405161038695949392919061218f565b60405180910390f35b34801561039a575f5ffd5b506103a361188f565b6040516103b09190611e30565b60405180910390f35b3480156103c4575f5ffd5b506103cd611a66565b6040516103da9190611fc3565b60405180910390f35b3480156103ee575f5ffd5b506103f7611a8b565b60405161040491906121fb565b60405180910390f35b348015610418575f5ffd5b50610433600480360381019061042e9190611ded565b611b24565b005b348015610440575f5ffd5b50610449611d6b565b604051610456919061226f565b60405180910390f35b5f5f60035f8473ffffffffffffffffffffffffffffffffffffffff1673ffffffffffffffffffffffffffffffffffffffff1681526020019081526020015f2090505f5f90505b818054905081101561057c578181815481106104c4576104c3612288565b5b905f5260205f2090600402016003015f9054906101000a900460ff16801561050c57505f8282815481106104fb576104fa612288565b5b905f5260205f2090600402015f0154115b801561053a575081818154811061052657610525612288565b5b905f5260205f209060040201600201544210155b1561056f5781818154811061055257610551612288565b5b905f5260205f2090600402015f01548361056c91906122e2565b92505b80806001019150506104a5565b5050919050565b5f5f61058d6115df565b836105989190612315565b90505f670de0b6b3a7640000826105af9190612383565b90508092505050919050565b60035f3373ffffffffffffffffffffffffffffffffffffffff1673ffffffffffffffffffffffffffffffffffffffff1681526020019081526020015f2080549050811061063d576040517f08c379a00000000000000000000000000000000000000000000000000000000081526004016106349061240d565b60405180910390fd5b5f60035f3373ffffffffffffffffffffffffffffffffffffffff1673ffffffffffffffffffffffffffffffffffffffff1681526020019081526020015f20828154811061068d5761068c612288565b5b905f5260205f2090600402019050806003015f9054906101000a900460ff166106eb576040517f08c379a00000000000000000000000000000000000000000000000000000000081526004016106e290612475565b60405180910390fd5b5f815f015411610730576040517f08c379a0000000000000000000000000000000000000000000000000000000008152600401610727906124dd565b60405180910390fd5b8060020154421015610777576040517f08c379a000000000000000000000000000000000000000000000000000000000815260040161076e90612545565b60405180910390fd5b5f815f015490505f826001015490505f835f01819055505f83600101819055505f836003015f6101000a81548160ff0219169083151502179055507f000000000000000000000000000000000000000000000000000000000000000073ffffffffffffffffffffffffffffffffffffffff166323b872dd3330846040518463ffffffff1660e01b815260040161080f93929190612563565b6020604051808303815f875af115801561082b573d5f5f3e3d5ffd5b505050506040513d601f19601f8201168201806040525081019061084f91906125c2565b61088e576040517f08c379a000000000000000000000000000000000000000000000000000000000815260040161088590612637565b60405180910390fd5b5f3373ffffffffffffffffffffffffffffffffffffffff16836040516108b390612682565b5f6040518083038185875af1925050503d805f81146108ed576040519150601f19603f3d011682016040523d82523d5f602084013e6108f2565b606091505b5050905080610936576040517f08c379a000000000000000000000000000000000000000000000000000000000815260040161092d906126e0565b60405180910390fd5b3373ffffffffffffffffffffffffffffffffffffffff167f92ccf450a286a957af52509bc1c9939d1a6a481783e142e41e2499f0bb66ebc6868560405161097e9291906126fe565b60405180910390a25050505050565b6060806060805f60035f8773ffffffffffffffffffffffffffffffffffffffff1673ffffffffffffffffffffffffffffffffffffffff1681526020019081526020015f2090505f5f90505f5f90505b8280549050811015610a64578281815481106109fb576109fa612288565b5b905f5260205f2090600402016003015f9054906101000a900460ff168015610a4357505f838281548110610a3257610a31612288565b5b905f5260205f2090600402015f0154115b15610a57578180610a5390612725565b9250505b80806001019150506109dc565b508067ffffffffffffffff811115610a7f57610a7e61276c565b5b604051908082528060200260200182016040528015610aad5781602001602082028036833780820191505090505b5095508067ffffffffffffffff811115610aca57610ac961276c565b5b604051908082528060200260200182016040528015610af85781602001602082028036833780820191505090505b5094508067ffffffffffffffff811115610b1557610b1461276c565b5b604051908082528060200260200182016040528015610b435781602001602082028036833780820191505090505b5093508067ffffffffffffffff811115610b6057610b5f61276c565b5b604051908082528060200260200182016040528015610b8e5781602001602082028036833780820191505090505b5092505f5f90505f5f90505b8380549050811015610d0757838181548110610bb957610bb8612288565b5b905f5260205f2090600402016003015f9054906101000a900460ff168015610c0157505f848281548110610bf057610bef612288565b5b905f5260205f2090600402015f0154115b15610cfa5780888381518110610c1a57610c19612288565b5b602002602001018181525050838181548110610c3957610c38612288565b5b905f5260205f2090600402015f0154878381518110610c5b57610c5a612288565b5b602002602001018181525050838181548110610c7a57610c79612288565b5b905f5260205f20906004020160010154868381518110610c9d57610c9c612288565b5b602002602001018181525050838181548110610cbc57610cbb612288565b5b905f5260205f20906004020160020154858381518110610cdf57610cde612288565b5b6020026020010181815250508180610cf690612725565b9250505b8080600101915050610b9a565b505050509193509193565b5f60035f8373ffffffffffffffffffffffffffffffffffffffff1673ffffffffffffffffffffffffffffffffffffffff1681526020019081526020015f20805490509050919050565b60015f9054906101000a900473ffffffffffffffffffffffffffffffffffffffff1673ffffffffffffffffffffffffffffffffffffffff163373ffffffffffffffffffffffffffffffffffffffff1614610dea576040517f08c379a0000000000000000000000000000000000000000000000000000000008152600401610de1906127e3565b60405180910390fd5b5f5f5f9054906101000a900473ffffffffffffffffffffffffffffffffffffffff169050335f5f6101000a81548173ffffffffffffffffffffffffffffffffffffffff021916908373ffffffffffffffffffffffffffffffffffffffff1602179055505f60015f6101000a81548173ffffffffffffffffffffffffffffffffffffffff021916908373ffffffffffffffffffffffffffffffffffffffff1602179055503373ffffffffffffffffffffffffffffffffffffffff168173ffffffffffffffffffffffffffffffffffffffff167f8be0079c531659141344cd1fd0a4f28419497f9722a3daafe3b4186f6b6457e060405160405180910390a350565b5f5f5f90505f5f90505f60035f3373ffffffffffffffffffffffffffffffffffffffff1673ffffffffffffffffffffffffffffffffffffffff1681526020019081526020015f2090505f5f90505b818054905081101561111f57818181548110610f5757610f56612288565b5b905f5260205f2090600402016003015f9054906101000a900460ff168015610f9f57505f828281548110610f8e57610f8d612288565b5b905f5260205f2090600402015f0154115b8015610fcd5750818181548110610fb957610fb8612288565b5b905f5260205f209060040201600201544210155b15611112575f828281548110610fe657610fe5612288565b5b905f5260205f2090600402015f015490505f83838154811061100b5761100a612288565b5b905f5260205f2090600402016001015490505f84848154811061103157611030612288565b5b905f5260205f2090600402015f01819055505f84848154811061105757611056612288565b5b905f5260205f209060040201600101819055505f84848154811061107e5761107d612288565b5b905f5260205f2090600402016003015f6101000a81548160ff02191690831515021790555081866110af91906122e2565b955080856110bd91906122e2565b94503373ffffffffffffffffffffffffffffffffffffffff167f92ccf450a286a957af52509bc1c9939d1a6a481783e142e41e2499f0bb66ebc684846040516111079291906126fe565b60405180910390a250505b8080600101915050610f38565b505f8311611162576040517f08c379a00000000000000000000000000000000000000000000000000000000081526004016111599061284b565b60405180910390fd5b7f000000000000000000000000000000000000000000000000000000000000000073ffffffffffffffffffffffffffffffffffffffff1663a9059cbb33846040518363ffffffff1660e01b81526004016111bd929190612869565b6020604051808303815f875af11580156111d9573d5f5f3e3d5ffd5b505050506040513d601f19601f820116820180604052508101906111fd91906125c2565b61123c576040517f08c379a000000000000000000000000000000000000000000000000000000000815260040161123390612637565b60405180910390fd5b5f3373ffffffffffffffffffffffffffffffffffffffff168460405161126190612682565b5f6040518083038185875af1925050503d805f811461129b576040519150601f19603f3d011682016040523d82523d5f602084013e6112a0565b606091505b50509050806112e4576040517f08c379a00000000000000000000000000000000000000000000000000000000081526004016112db906126e0565b60405180910390fd5b8394505050505090565b5f5f9054906101000a900473ffffffffffffffffffffffffffffffffffffffff1681565b606060035f8373ffffffffffffffffffffffffffffffffffffffff1673ffffffffffffffffffffffffffffffffffffffff1681526020019081526020015f20805480602002602001604051908101604052809291908181526020015f905b828210156113d7578382905f5260205f2090600402016040518060800160405290815f82015481526020016001820154815260200160028201548152602001600382015f9054906101000a900460ff16151515158152505081526020019060010190611370565b505050509050919050565b5f6113ec34610583565b905060648114611431576040517f08c379a000000000000000000000000000000000000000000000000000000000815260040161142890612900565b60405180910390fd5b428211611473576040517f08c379a000000000000000000000000000000000000000000000000000000000815260040161146a9061298e565b60405180910390fd5b60035f3373ffffffffffffffffffffffffffffffffffffffff1673ffffffffffffffffffffffffffffffffffffffff1681526020019081526020015f2060405180608001604052803481526020016001815260200184815260200160011515815250908060018154018082558091505060019003905f5260205f2090600402015f909190919091505f820151815f015560208201518160010155604082015181600201556060820151816003015f6101000a81548160ff02191690831515021790555050505f600160035f3373ffffffffffffffffffffffffffffffffffffffff1673ffffffffffffffffffffffffffffffffffffffff1681526020019081526020015f208054905061158691906129ac565b90503373ffffffffffffffffffffffffffffffffffffffff167f91ede45f04a37a7c170f5c1207df3b6bc748dc1e04ad5e917a241d0f52feada38234866040516115d2939291906129df565b60405180910390a2505050565b5f5f60025f9054906101000a900473ffffffffffffffffffffffffffffffffffffffff1673ffffffffffffffffffffffffffffffffffffffff1663feaf968c6040518163ffffffff1660e01b815260040160a060405180830381865afa15801561164b573d5f5f3e3d5ffd5b505050506040513d601f19601f8201168201806040525081019061166f9190612a91565b5050509150505f61167e611a8b565b90505f81600a61168e9190612c37565b836116999190612c81565b905080935050505090565b5f5f60035f8473ffffffffffffffffffffffffffffffffffffffff1673ffffffffffffffffffffffffffffffffffffffff1681526020019081526020015f2090505f5f90505b81805490508110156117675781818154811061170957611708612288565b5b905f5260205f2090600402016003015f9054906101000a900460ff161561175a5781818154811061173d5761173c612288565b5b905f5260205f2090600402015f01548361175791906122e2565b92505b80806001019150506116ea565b5050919050565b5f5f5f5f5f60035f8873ffffffffffffffffffffffffffffffffffffffff1673ffffffffffffffffffffffffffffffffffffffff1681526020019081526020015f208054905086106117f5576040517f08c379a00000000000000000000000000000000000000000000000000000000081526004016117ec9061240d565b60405180910390fd5b5f60035f8973ffffffffffffffffffffffffffffffffffffffff1673ffffffffffffffffffffffffffffffffffffffff1681526020019081526020015f20878154811061184557611844612288565b5b905f5260205f2090600402019050805f015481600101548260020154836003015f9054906101000a900460ff16846002015442101595509550955095509550509295509295909350565b5f5f5f9054906101000a900473ffffffffffffffffffffffffffffffffffffffff1673ffffffffffffffffffffffffffffffffffffffff163373ffffffffffffffffffffffffffffffffffffffff161461191e576040517f08c379a000000000000000000000000000000000000000000000000000000000815260040161191590612d33565b60405180910390fd5b4790505f8111611963576040517f08c379a000000000000000000000000000000000000000000000000000000000815260040161195a90612d9b565b60405180910390fd5b5f5f5f9054906101000a900473ffffffffffffffffffffffffffffffffffffffff1673ffffffffffffffffffffffffffffffffffffffff16826040516119a890612682565b5f6040518083038185875af1925050503d805f81146119e2576040519150601f19603f3d011682016040523d82523d5f602084013e6119e7565b606091505b50509050806119f4575f5ffd5b5f5f9054906101000a900473ffffffffffffffffffffffffffffffffffffffff1673ffffffffffffffffffffffffffffffffffffffff167f2e39961a70a10f4d46383948095ac2752b3ee642a7c76aa827410aaff08c2e5183604051611a5a9190611e30565b60405180910390a25090565b60015f9054906101000a900473ffffffffffffffffffffffffffffffffffffffff1681565b5f5f60025f9054906101000a900473ffffffffffffffffffffffffffffffffffffffff1673ffffffffffffffffffffffffffffffffffffffff1663313ce5676040518163ffffffff1660e01b8152600401602060405180830381865afa158015611af7573d5f5f3e3d5ffd5b505050506040513d601f19601f82011682018060405250810190611b1b9190612de3565b90508091505090565b5f5f9054906101000a900473ffffffffffffffffffffffffffffffffffffffff1673ffffffffffffffffffffffffffffffffffffffff163373ffffffffffffffffffffffffffffffffffffffff1614611bb2576040517f08c379a0000000000000000000000000000000000000000000000000000000008152600401611ba990612d33565b60405180910390fd5b5f73ffffffffffffffffffffffffffffffffffffffff168173ffffffffffffffffffffffffffffffffffffffff1603611c20576040517f08c379a0000000000000000000000000000000000000000000000000000000008152600401611c1790612e58565b60405180910390fd5b5f5f9054906101000a900473ffffffffffffffffffffffffffffffffffffffff1673ffffffffffffffffffffffffffffffffffffffff168173ffffffffffffffffffffffffffffffffffffffff1603611cae576040517f08c379a0000000000000000000000000000000000000000000000000000000008152600401611ca590612ec0565b60405180910390fd5b8060015f6101000a81548173ffffffffffffffffffffffffffffffffffffffff021916908373ffffffffffffffffffffffffffffffffffffffff1602179055508073ffffffffffffffffffffffffffffffffffffffff165f5f9054906101000a900473ffffffffffffffffffffffffffffffffffffffff1673ffffffffffffffffffffffffffffffffffffffff167f38d16b8cac22d99fc7c124b9cd0de2d3fa1faef420bfe791d8c362d765e2270060405160405180910390a350565b7f000000000000000000000000000000000000000000000000000000000000000081565b5f5ffd5b5f73ffffffffffffffffffffffffffffffffffffffff82169050919050565b5f611dbc82611d93565b9050919050565b611dcc81611db2565b8114611dd6575f5ffd5b50565b5f81359050611de781611dc3565b92915050565b5f60208284031215611e0257611e01611d8f565b5b5f611e0f84828501611dd9565b91505092915050565b5f819050919050565b611e2a81611e18565b82525050565b5f602082019050611e435f830184611e21565b92915050565b611e5281611e18565b8114611e5c575f5ffd5b50565b5f81359050611e6d81611e49565b92915050565b5f60208284031215611e8857611e87611d8f565b5b5f611e9584828501611e5f565b91505092915050565b5f81519050919050565b5f82825260208201905092915050565b5f819050602082019050919050565b611ed081611e18565b82525050565b5f611ee18383611ec7565b60208301905092915050565b5f602082019050919050565b5f611f0382611e9e565b611f0d8185611ea8565b9350611f1883611eb8565b805f5b83811015611f48578151611f2f8882611ed6565b9750611f3a83611eed565b925050600181019050611f1b565b5085935050505092915050565b5f6080820190508181035f830152611f6d8187611ef9565b90508181036020830152611f818186611ef9565b90508181036040830152611f958185611ef9565b90508181036060830152611fa98184611ef9565b905095945050505050565b611fbd81611db2565b82525050565b5f602082019050611fd65f830184611fb4565b92915050565b5f81519050919050565b5f82825260208201905092915050565b5f819050602082019050919050565b5f8115159050919050565b61201981612005565b82525050565b608082015f8201516120335f850182611ec7565b5060208201516120466020850182611ec7565b5060408201516120596040850182611ec7565b50606082015161206c6060850182612010565b50505050565b5f61207d838361201f565b60808301905092915050565b5f602082019050919050565b5f61209f82611fdc565b6120a98185611fe6565b93506120b483611ff6565b805f5b838110156120e45781516120cb8882612072565b97506120d683612089565b9250506001810190506120b7565b5085935050505092915050565b5f6020820190508181035f8301526121098184612095565b905092915050565b5f819050919050565b61212381612111565b82525050565b5f60208201905061213c5f83018461211a565b92915050565b5f5f6040838503121561215857612157611d8f565b5b5f61216585828601611dd9565b925050602061217685828601611e5f565b9150509250929050565b61218981612005565b82525050565b5f60a0820190506121a25f830188611e21565b6121af6020830187611e21565b6121bc6040830186611e21565b6121c96060830185612180565b6121d66080830184612180565b9695505050505050565b5f60ff82169050919050565b6121f5816121e0565b82525050565b5f60208201905061220e5f8301846121ec565b92915050565b5f819050919050565b5f61223761223261222d84611d93565b612214565b611d93565b9050919050565b5f6122488261221d565b9050919050565b5f6122598261223e565b9050919050565b6122698161224f565b82525050565b5f6020820190506122825f830184612260565b92915050565b7f4e487b71000000000000000000000000000000000000000000000000000000005f52603260045260245ffd5b7f4e487b71000000000000000000000000000000000000000000000000000000005f52601160045260245ffd5b5f6122ec82611e18565b91506122f783611e18565b925082820190508082111561230f5761230e6122b5565b5b92915050565b5f61231f82611e18565b915061232a83611e18565b925082820261233881611e18565b9150828204841483151761234f5761234e6122b5565b5b5092915050565b7f4e487b71000000000000000000000000000000000000000000000000000000005f52601260045260245ffd5b5f61238d82611e18565b915061239883611e18565b9250826123a8576123a7612356565b5b828204905092915050565b5f82825260208201905092915050565b7f496e76616c6964207661756c74204944000000000000000000000000000000005f82015250565b5f6123f76010836123b3565b9150612402826123c3565b602082019050919050565b5f6020820190508181035f830152612424816123eb565b9050919050565b7f5661756c74206973206e6f7420616374697665000000000000000000000000005f82015250565b5f61245f6013836123b3565b915061246a8261242b565b602082019050919050565b5f6020820190508181035f83015261248c81612453565b9050919050565b7f5661756c7420686173207a65726f2062616c616e6365000000000000000000005f82015250565b5f6124c76016836123b3565b91506124d282612493565b602082019050919050565b5f6020820190508181035f8301526124f4816124bb565b9050919050565b7f46756e647320617265207374696c6c206c6f636b6564000000000000000000005f82015250565b5f61252f6016836123b3565b915061253a826124fb565b602082019050919050565b5f6020820190508181035f83015261255c81612523565b9050919050565b5f6060820190506125765f830186611fb4565b6125836020830185611fb4565b6125906040830184611e21565b949350505050565b6125a181612005565b81146125ab575f5ffd5b50565b5f815190506125bc81612598565b92915050565b5f602082840312156125d7576125d6611d8f565b5b5f6125e4848285016125ae565b91505092915050565b7f546f6b656e207472616e73666572206661696c656400000000000000000000005f82015250565b5f6126216015836123b3565b915061262c826125ed565b602082019050919050565b5f6020820190508181035f83015261264e81612615565b9050919050565b5f81905092915050565b50565b5f61266d5f83612655565b91506126788261265f565b5f82019050919050565b5f61268c82612662565b9150819050919050565b7f5472616e73666572206661696c656400000000000000000000000000000000005f82015250565b5f6126ca600f836123b3565b91506126d582612696565b602082019050919050565b5f6020820190508181035f8301526126f7816126be565b9050919050565b5f6040820190506127115f830185611e21565b61271e6020830184611e21565b9392505050565b5f61272f82611e18565b91507fffffffffffffffffffffffffffffffffffffffffffffffffffffffffffffffff8203612761576127606122b5565b5b600182019050919050565b7f4e487b71000000000000000000000000000000000000000000000000000000005f52604160045260245ffd5b7f4e6f742070656e64696e67206f776e65720000000000000000000000000000005f82015250565b5f6127cd6011836123b3565b91506127d882612799565b602082019050919050565b5f6020820190508181035f8301526127fa816127c1565b9050919050565b7f4e6f20756e6c6f636b65642066756e647320617661696c61626c6500000000005f82015250565b5f612835601b836123b3565b915061284082612801565b602082019050919050565b5f6020820190508181035f83015261286281612829565b9050919050565b5f60408201905061287c5f830185611fb4565b6128896020830184611e21565b9392505050565b7f796f75206d757374206465706f736974203130302055534420776f727468206f5f8201527f6620455448000000000000000000000000000000000000000000000000000000602082015250565b5f6128ea6025836123b3565b91506128f582612890565b604082019050919050565b5f6020820190508181035f830152612917816128de565b9050919050565b7f556e6c6f636b2074696d65206d75737420626520696e207468652066757475725f8201527f6500000000000000000000000000000000000000000000000000000000000000602082015250565b5f6129786021836123b3565b91506129838261291e565b604082019050919050565b5f6020820190508181035f8301526129a58161296c565b9050919050565b5f6129b682611e18565b91506129c183611e18565b92508282039050818111156129d9576129d86122b5565b5b92915050565b5f6060820190506129f25f830186611e21565b6129ff6020830185611e21565b612a0c6040830184611e21565b949350505050565b5f69ffffffffffffffffffff82169050919050565b612a3281612a14565b8114612a3c575f5ffd5b50565b5f81519050612a4d81612a29565b92915050565b612a5c81612111565b8114612a66575f5ffd5b50565b5f81519050612a7781612a53565b92915050565b5f81519050612a8b81611e49565b92915050565b5f5f5f5f5f60a08688031215612aaa57612aa9611d8f565b5b5f612ab788828901612a3f565b9550506020612ac888828901612a69565b9450506040612ad988828901612a7d565b9350506060612aea88828901612a7d565b9250506080612afb88828901612a3f565b9150509295509295909350565b5f8160011c9050919050565b5f5f8291508390505b6001851115612b5d57808604811115612b3957612b386122b5565b5b6001851615612b485780820291505b8081029050612b5685612b08565b9450612b1d565b94509492505050565b5f82612b755760019050612c30565b81612b82575f9050612c30565b8160018114612b985760028114612ba257612bd1565b6001915050612c30565b60ff841115612bb457612bb36122b5565b5b8360020a915084821115612bcb57612bca6122b5565b5b50612c30565b5060208310610133831016604e8410600b8410161715612c065782820a905083811115612c0157612c006122b5565b5b612c30565b612c138484846001612b14565b92509050818404811115612c2a57612c296122b5565b5b81810290505b9392505050565b5f612c4182611e18565b9150612c4c836121e0565b9250612c797fffffffffffffffffffffffffffffffffffffffffffffffffffffffffffffffff8484612b66565b905092915050565b5f612c8b82612111565b9150612c9683612111565b925082612ca657612ca5612356565b5b60015f0383147f800000000000000000000000000000000000000000000000000000000000000083141615612cde57612cdd6122b5565b5b828205905092915050565b7f4e6f74206f776e657200000000000000000000000000000000000000000000005f82015250565b5f612d1d6009836123b3565b9150612d2882612ce9565b602082019050919050565b5f6020820190508181035f830152612d4a81612d11565b9050919050565b7f4e6f2066756e647320617661696c61626c6500000000000000000000000000005f82015250565b5f612d856012836123b3565b9150612d9082612d51565b602082019050919050565b5f6020820190508181035f830152612db281612d79565b9050919050565b612dc2816121e0565b8114612dcc575f5ffd5b50565b5f81519050612ddd81612db9565b92915050565b5f60208284031215612df857612df7611d8f565b5b5f612e0584828501612dcf565b91505092915050565b7f4e6577206f776e6572206973207a65726f2061646472657373000000000000005f82015250565b5f612e426019836123b3565b9150612e4d82612e0e565b602082019050919050565b5f6020820190508181035f830152612e6f81612e36565b9050919050565b7f4e6577206f776e65722069732063757272656e74206f776e65720000000000005f82015250565b5f612eaa601a836123b3565b9150612eb582612e76565b602082019050919050565b5f6020820190508181035f830152612ed781612e9e565b905091905056fea2646970667358221220a56c5df2d6174f2038015261aa93e5117262736e60ba0260399b0c869b21ef9764736f6c634300081c0033","linkReferences":{}},"methodIdentifiers":{"acceptOwnership()":"79ba5097","deposit(uint256)":"b6b55f25","emergencyWithdraw()":"db2e21bc","ethToUSD(uint256)":"196e609d","getActiveVaults(address)":"57c57f72","getAllVaults(address)":"a2e5437c","getDecimals()":"f0141d84","getETHUSDPrice()":"bf4b1990","getTotalBalance(address)":"d3d38193","getUnlockedBalance(address)":"129de5bf","getVault(address,uint256)":"d99d13f5","getVaultCount(address)":"77e1296e","owner()":"8da5cb5b","pendingOwner()":"e30c3978","token()":"fc0c546a","transferOwnership(address)":"f2fde38b","withdraw(uint256)":"2e1a7d4d","withdrawAll()":"853828b6"},"id":21}