{
  "_format": "hh3-artifact-1",
  "contractName": "Todo",
  "sourceName": "contracts/todo/contracts/Todo.sol",
  "abi": [
    {
      "anonymous": false,
      "inputs": [
        {
          "indexed": false,
          "internalType": "string",
          "name": "text",
          "type": "string"
        },
        {
          "indexed": false,
          "internalType": "uint256",
          "name": "deadline",
          "type": "uint256"
        }
      ],
      "name": "TaskCreated",
      "type": "event"
    },
    {
      "inputs": [
        {
          "internalType": "string",
          "name": "text",
          "type": "string"
        },
        {
          "internalType": "uint256",
          "name": "deadline",
          "type": "uint256"
        }
      ],
      "name": "createTask",
      "outputs": [
        {
          "internalType": "uint256",
          "name": "",
          "type": "uint256"
        }
      ],
      "stateMutability": "nonpayable",
      "type": "function"
    },
    {
      "inputs": [
        {
          "internalType": "uint256",
          "name": "id",
          "type": "uint256"
        }
      ],
      "name": "doneTask",
      "outputs": [
        {
          "internalType": "uint256",
          "name": "",
          "type": "uint256"
        }
      ],
      "stateMutability": "nonpayable",
      "type": "function"
    },
    {
      "inputs": [
        {
          "internalType": "uint256",
          "name": "id",
          "type": "uint256"
        }
      ],
      "name": "getTask",
      "outputs": [
        {
          "components": [
            {
              "internalType": "uint256",
              "name": "id",
              "type": "uint256"
            },
            {
              "internalType": "address",
              "name": "admin",
              "type": "address"
            },
            {
              "internalType": "string",
              "name": "text",
              "type": "string"
            },
            {
              "internalType": "enum Todo.TaskState",
              "name": "status",
              "type": "uint8"
            },
            {
              "internalType": "uint256",
              "name": "deadline",
              "type": "uint256"
            }
          ],
          "internalType": "struct Todo.Task",
          "name": "",
          "type": "tuple"
        }
      ],
      "stateMutability": "view",
      "type": "function"
    },
    {
      "inputs": [],
      "name": "todoCounter",
      "outputs": [
        {
          "internalType": "uint256",
          "name": "",
          "type": "uint256"
        }
      ],
      "stateMutability": "view",
      "type": "function"
    },
    {
      "inputs": [
        {
          "internalType": "uint256",
          "name": "id",
          "type": "uint256"
        },
        {
          "internalType": "string",
          "name": "text",
          "type": "string"
        },
        {
          "internalType": "uint256",
          "name": "deadline",
          "type": "uint256"
        }
      ],
      "name": "updateTask",
      "outputs": [
        {
          "internalType": "uint256",
          "name": "",
          "type": "uint256"
        }
      ],
      "stateMutability": "nonpayable",
      "type": "function"
    }
  ],
  "bytecode": "0x6080604052348015600e575f5ffd5b506112978061001c5f395ff3fe608060405234801561000f575f5ffd5b5060043610610055575f3560e01c806304fe2b34146100595780631d65e77e146100895780634fd218b1146100b95780635e6f8337146100d75780636e23949314610107575b5f5ffd5b610073600480360381019061006e919061097d565b610137565b60405161008091906109e6565b60405180910390f35b6100a3600480360381019061009e91906109ff565b610325565b6040516100b09190610bbe565b60405180910390f35b6100c1610482565b6040516100ce91906109e6565b60405180910390f35b6100f160048036038101906100ec91906109ff565b610487565b6040516100fe91906109e6565b60405180910390f35b610121600480360381019061011c9190610bde565b61056c565b60405161012e91906109e6565b60405180910390f35b5f5f83511161017b576040517f08c379a000000000000000000000000000000000000000000000000000000000815260040161017290610ca4565b60405180910390fd5b610258426101899190610cef565b82116101ca576040517f08c379a00000000000000000000000000000000000000000000000000000000081526004016101c190610d6c565b60405180910390fd5b5f5f8154809291906101db90610d8a565b91905055506040518060a001604052805f5481526020013373ffffffffffffffffffffffffffffffffffffffff1681526020018481526020015f600381111561022757610226610ad8565b5b81526020018381525060015f5f5481526020019081526020015f205f820151815f01556020820151816001015f6101000a81548173ffffffffffffffffffffffffffffffffffffffff021916908373ffffffffffffffffffffffffffffffffffffffff16021790555060408201518160020190816102a59190610fce565b506060820151816003015f6101000a81548160ff021916908360038111156102d0576102cf610ad8565b5b0217905550608082015181600401559050507fed1d390c812a65783a09786b88b832ef75bb16882fbc56eeea9bf61a4c1a8ac783836040516103139291906110d5565b60405180910390a15f54905092915050565b61032d6107aa565b60015f8381526020019081526020015f206040518060a00160405290815f8201548152602001600182015f9054906101000a900473ffffffffffffffffffffffffffffffffffffffff1673ffffffffffffffffffffffffffffffffffffffff1673ffffffffffffffffffffffffffffffffffffffff1681526020016002820180546103b790610dfe565b80601f01602080910402602001604051908101604052809291908181526020018280546103e390610dfe565b801561042e5780601f106104055761010080835404028352916020019161042e565b820191905f5260205f20905b81548152906001019060200180831161041157829003601f168201915b50505050508152602001600382015f9054906101000a900460ff16600381111561045b5761045a610ad8565b5b600381111561046d5761046c610ad8565b5b81526020016004820154815250509050919050565b5f5481565b5f3373ffffffffffffffffffffffffffffffffffffffff1660015f8481526020019081526020015f206001015f9054906101000a900473ffffffffffffffffffffffffffffffffffffffff1673ffffffffffffffffffffffffffffffffffffffff1614610529576040517f08c379a00000000000000000000000000000000000000000000000000000000081526004016105209061114d565b60405180910390fd5b6001805f8481526020019081526020015f206003015f6101000a81548160ff0219169083600381111561055f5761055e610ad8565b5b0217905550819050919050565b5f5f8351116105b0576040517f08c379a00000000000000000000000000000000000000000000000000000000081526004016105a790610ca4565b60405180910390fd5b610258426105be9190610cef565b82116105ff576040517f08c379a00000000000000000000000000000000000000000000000000000000081526004016105f6906111db565b60405180910390fd5b3373ffffffffffffffffffffffffffffffffffffffff1660015f8681526020019081526020015f206001015f9054906101000a900473ffffffffffffffffffffffffffffffffffffffff1673ffffffffffffffffffffffffffffffffffffffff16146106a0576040517f08c379a000000000000000000000000000000000000000000000000000000000815260040161069790611243565b60405180910390fd5b6040518060a001604052808581526020013373ffffffffffffffffffffffffffffffffffffffff1681526020018481526020015f60038111156106e6576106e5610ad8565b5b81526020018381525060015f8681526020019081526020015f205f820151815f01556020820151816001015f6101000a81548173ffffffffffffffffffffffffffffffffffffffff021916908373ffffffffffffffffffffffffffffffffffffffff16021790555060408201518160020190816107639190610fce565b506060820151816003015f6101000a81548160ff0219169083600381111561078e5761078d610ad8565b5b0217905550608082015181600401559050508390509392505050565b6040518060a001604052805f81526020015f73ffffffffffffffffffffffffffffffffffffffff168152602001606081526020015f60038111156107f1576107f0610ad8565b5b81526020015f81525090565b5f604051905090565b5f5ffd5b5f5ffd5b5f5ffd5b5f5ffd5b5f601f19601f8301169050919050565b7f4e487b71000000000000000000000000000000000000000000000000000000005f52604160045260245ffd5b61085c82610816565b810181811067ffffffffffffffff8211171561087b5761087a610826565b5b80604052505050565b5f61088d6107fd565b90506108998282610853565b919050565b5f67ffffffffffffffff8211156108b8576108b7610826565b5b6108c182610816565b9050602081019050919050565b828183375f83830152505050565b5f6108ee6108e98461089e565b610884565b90508281526020810184848401111561090a57610909610812565b5b6109158482856108ce565b509392505050565b5f82601f8301126109315761093061080e565b5b81356109418482602086016108dc565b91505092915050565b5f819050919050565b61095c8161094a565b8114610966575f5ffd5b50565b5f8135905061097781610953565b92915050565b5f5f6040838503121561099357610992610806565b5b5f83013567ffffffffffffffff8111156109b0576109af61080a565b5b6109bc8582860161091d565b92505060206109cd85828601610969565b9150509250929050565b6109e08161094a565b82525050565b5f6020820190506109f95f8301846109d7565b92915050565b5f60208284031215610a1457610a13610806565b5b5f610a2184828501610969565b91505092915050565b610a338161094a565b82525050565b5f73ffffffffffffffffffffffffffffffffffffffff82169050919050565b5f610a6282610a39565b9050919050565b610a7281610a58565b82525050565b5f81519050919050565b5f82825260208201905092915050565b8281835e5f83830152505050565b5f610aaa82610a78565b610ab48185610a82565b9350610ac4818560208601610a92565b610acd81610816565b840191505092915050565b7f4e487b71000000000000000000000000000000000000000000000000000000005f52602160045260245ffd5b60048110610b1657610b15610ad8565b5b50565b5f819050610b2682610b05565b919050565b5f610b3582610b19565b9050919050565b610b4581610b2b565b82525050565b5f60a083015f830151610b605f860182610a2a565b506020830151610b736020860182610a69565b5060408301518482036040860152610b8b8282610aa0565b9150506060830151610ba06060860182610b3c565b506080830151610bb36080860182610a2a565b508091505092915050565b5f6020820190508181035f830152610bd68184610b4b565b905092915050565b5f5f5f60608486031215610bf557610bf4610806565b5b5f610c0286828701610969565b935050602084013567ffffffffffffffff811115610c2357610c2261080a565b5b610c2f8682870161091d565b9250506040610c4086828701610969565b9150509250925092565b5f82825260208201905092915050565b7f546578742063616e6e6f7420626520656d7074790000000000000000000000005f82015250565b5f610c8e601483610c4a565b9150610c9982610c5a565b602082019050919050565b5f6020820190508181035f830152610cbb81610c82565b9050919050565b7f4e487b71000000000000000000000000000000000000000000000000000000005f52601160045260245ffd5b5f610cf98261094a565b9150610d048361094a565b9250828201905080821115610d1c57610d1b610cc2565b5b92915050565b7f496e76616c696420646561646c696e65000000000000000000000000000000005f82015250565b5f610d56601083610c4a565b9150610d6182610d22565b602082019050919050565b5f6020820190508181035f830152610d8381610d4a565b9050919050565b5f610d948261094a565b91507fffffffffffffffffffffffffffffffffffffffffffffffffffffffffffffffff8203610dc657610dc5610cc2565b5b600182019050919050565b7f4e487b71000000000000000000000000000000000000000000000000000000005f52602260045260245ffd5b5f6002820490506001821680610e1557607f821691505b602082108103610e2857610e27610dd1565b5b50919050565b5f819050815f5260205f209050919050565b5f6020601f8301049050919050565b5f82821b905092915050565b5f60088302610e8a7fffffffffffffffffffffffffffffffffffffffffffffffffffffffffffffffff82610e4f565b610e948683610e4f565b95508019841693508086168417925050509392505050565b5f819050919050565b5f610ecf610eca610ec58461094a565b610eac565b61094a565b9050919050565b5f819050919050565b610ee883610eb5565b610efc610ef482610ed6565b848454610e5b565b825550505050565b5f5f905090565b610f13610f04565b610f1e818484610edf565b505050565b5b81811015610f4157610f365f82610f0b565b600181019050610f24565b5050565b601f821115610f8657610f5781610e2e565b610f6084610e40565b81016020851015610f6f578190505b610f83610f7b85610e40565b830182610f23565b50505b505050565b5f82821c905092915050565b5f610fa65f1984600802610f8b565b1980831691505092915050565b5f610fbe8383610f97565b9150826002028217905092915050565b610fd782610a78565b67ffffffffffffffff811115610ff057610fef610826565b5b610ffa8254610dfe565b611005828285610f45565b5f60209050601f831160018114611036575f8415611024578287015190505b61102e8582610fb3565b865550611095565b601f19841661104486610e2e565b5f5b8281101561106b57848901518255600182019150602085019450602081019050611046565b868310156110885784890151611084601f891682610f97565b8355505b6001600288020188555050505b505050505050565b5f6110a782610a78565b6110b18185610c4a565b93506110c1818560208601610a92565b6110ca81610816565b840191505092915050565b5f6040820190508181035f8301526110ed818561109d565b90506110fc60208301846109d7565b9392505050565b7f4f6e6c792061646d696e2063616e20636f6d706c657465207461736b000000005f82015250565b5f611137601c83610c4a565b915061114282611103565b602082019050919050565b5f6020820190508181035f8301526111648161112b565b9050919050565b7f446561646c696e652063616e6e6f74206265206c657373207468616e203130205f8201527f6d696e7574657300000000000000000000000000000000000000000000000000602082015250565b5f6111c5602783610c4a565b91506111d08261116b565b604082019050919050565b5f6020820190508181035f8301526111f2816111b9565b9050919050565b7f4f6e6c792061646d696e2063616e20757064617465207461736b0000000000005f82015250565b5f61122d601a83610c4a565b9150611238826111f9565b602082019050919050565b5f6020820190508181035f83015261125a81611221565b905091905056fea2646970667358221220915322ffbd806a99dd150ddf70450582f4ec00d515dee2885fdb5e05256e652c64736f6c634300081c0033",
  "linkReferences": {},
  "deployedLinkReferences": {},
  "immutableReferences": {},
  "inputSourceName": "project/contracts/todo/contracts/Todo.sol",
  "buildInfoId": "solc-0_8_28-90a9f09f6a4f098ca55bdce3293f36afd461b7cb"
}