{
  "_format": "hh3-artifact-1",
  "contractName": "RewardERC20",
  "sourceName": "contracts/reward.sol",
  "abi": [
    {
      "inputs": [
        {
          "internalType": "string",
          "name": "_name",
          "type": "string"
        },
        {
          "internalType": "string",
          "name": "_symbol",
          "type": "string"
        },
        {
          "internalType": "uint8",
          "name": "_decimals",
          "type": "uint8"
        },
        {
          "internalType": "uint256",
          "name": "_initialSupply",
          "type": "uint256"
        }
      ],
      "stateMutability": "nonpayable",
      "type": "constructor"
    },
    {
      "anonymous": false,
      "inputs": [
        {
          "indexed": true,
          "internalType": "address",
          "name": "owner",
          "type": "address"
        },
        {
          "indexed": true,
          "internalType": "address",
          "name": "spender",
          "type": "address"
        },
        {
          "indexed": false,
          "internalType": "uint256",
          "name": "value",
          "type": "uint256"
        }
      ],
      "name": "Approval",
      "type": "event"
    },
    {
      "anonymous": false,
      "inputs": [
        {
          "indexed": true,
          "internalType": "address",
          "name": "from",
          "type": "address"
        },
        {
          "indexed": true,
          "internalType": "address",
          "name": "to",
          "type": "address"
        },
        {
          "indexed": false,
          "internalType": "uint256",
          "name": "value",
          "type": "uint256"
        }
      ],
      "name": "Transfer",
      "type": "event"
    },
    {
      "inputs": [
        {
          "internalType": "address",
          "name": "owner",
          "type": "address"
        },
        {
          "internalType": "address",
          "name": "spender",
          "type": "address"
        }
      ],
      "name": "allowances",
      "outputs": [
        {
          "internalType": "uint256",
          "name": "",
          "type": "uint256"
        }
      ],
      "stateMutability": "view",
      "type": "function"
    },
    {
      "inputs": [
        {
          "internalType": "address",
          "name": "spender",
          "type": "address"
        },
        {
          "internalType": "uint256",
          "name": "amount",
          "type": "uint256"
        }
      ],
      "name": "approve",
      "outputs": [
        {
          "internalType": "bool",
          "name": "",
          "type": "bool"
        }
      ],
      "stateMutability": "nonpayable",
      "type": "function"
    },
    {
      "inputs": [
        {
          "internalType": "address",
          "name": "account",
          "type": "address"
        }
      ],
      "name": "balanceOf",
      "outputs": [
        {
          "internalType": "uint256",
          "name": "",
          "type": "uint256"
        }
      ],
      "stateMutability": "view",
      "type": "function"
    },
    {
      "inputs": [],
      "name": "decimals",
      "outputs": [
        {
          "internalType": "uint8",
          "name": "",
          "type": "uint8"
        }
      ],
      "stateMutability": "view",
      "type": "function"
    },
    {
      "inputs": [
        {
          "internalType": "uint256",
          "name": "amount",
          "type": "uint256"
        }
      ],
      "name": "mint",
      "outputs": [
        {
          "internalType": "bool",
          "name": "",
          "type": "bool"
        }
      ],
      "stateMutability": "nonpayable",
      "type": "function"
    },
    {
      "inputs": [],
      "name": "name",
      "outputs": [
        {
          "internalType": "string",
          "name": "",
          "type": "string"
        }
      ],
      "stateMutability": "view",
      "type": "function"
    },
    {
      "inputs": [],
      "name": "symbol",
      "outputs": [
        {
          "internalType": "string",
          "name": "",
          "type": "string"
        }
      ],
      "stateMutability": "view",
      "type": "function"
    },
    {
      "inputs": [],
      "name": "totalSupply",
      "outputs": [
        {
          "internalType": "uint256",
          "name": "",
          "type": "uint256"
        }
      ],
      "stateMutability": "view",
      "type": "function"
    },
    {
      "inputs": [
        {
          "internalType": "address",
          "name": "to",
          "type": "address"
        },
        {
          "internalType": "uint256",
          "name": "amount",
          "type": "uint256"
        }
      ],
      "name": "transfer",
      "outputs": [
        {
          "internalType": "bool",
          "name": "",
          "type": "bool"
        }
      ],
      "stateMutability": "nonpayable",
      "type": "function"
    },
    {
      "inputs": [
        {
          "internalType": "address",
          "name": "from",
          "type": "address"
        },
        {
          "internalType": "address",
          "name": "to",
          "type": "address"
        },
        {
          "internalType": "uint256",
          "name": "amount",
          "type": "uint256"
        }
      ],
      "name": "transferFrom",
      "outputs": [
        {
          "internalType": "bool",
          "name": "",
          "type": "bool"
        }
      ],
      "stateMutability": "nonpayable",
      "type": "function"
    }
  ],
  "bytecode": "0x608060405234801561000f575f5ffd5b50604051610b5f380380610b5f83398101604081905261002e916101e6565b5f61003985826102ed565b50600161004684826102ed565b506002805460ff191660ff84161790556100603382610069565b505050506103cc565b6001600160a01b0382166100c35760405162461bcd60e51b815260206004820152601860248201527f63616e6e6f74206d696e7420746f206164647265737320300000000000000000604482015260640160405180910390fd5b8060035f8282546100d491906103a7565b90915550506001600160a01b0382165f90815260046020526040812080548392906101009084906103a7565b90915550506040518181526001600160a01b038316905f907fddf252ad1be2c89b69c2b068fc378daa952ba7f163c4a11628f55a4df523b3ef9060200160405180910390a35050565b634e487b7160e01b5f52604160045260245ffd5b5f82601f83011261016c575f5ffd5b81516001600160401b0381111561018557610185610149565b604051601f8201601f19908116603f011681016001600160401b03811182821017156101b3576101b3610149565b6040528181528382016020018510156101ca575f5ffd5b8160208501602083015e5f918101602001919091529392505050565b5f5f5f5f608085870312156101f9575f5ffd5b84516001600160401b0381111561020e575f5ffd5b61021a8782880161015d565b602087015190955090506001600160401b03811115610237575f5ffd5b6102438782880161015d565b935050604085015160ff81168114610259575f5ffd5b6060959095015193969295505050565b600181811c9082168061027d57607f821691505b60208210810361029b57634e487b7160e01b5f52602260045260245ffd5b50919050565b601f8211156102e857805f5260205f20601f840160051c810160208510156102c65750805b601f840160051c820191505b818110156102e5575f81556001016102d2565b50505b505050565b81516001600160401b0381111561030657610306610149565b61031a816103148454610269565b846102a1565b6020601f82116001811461034c575f83156103355750848201515b5f19600385901b1c1916600184901b1784556102e5565b5f84815260208120601f198516915b8281101561037b578785015182556020948501946001909201910161035b565b508482101561039857868401515f19600387901b60f8161c191681555b50505050600190811b01905550565b808201808211156103c657634e487b7160e01b5f52601160045260245ffd5b92915050565b610786806103d95f395ff3fe608060405234801561000f575f5ffd5b506004361061009b575f3560e01c806355b6ed5c1161006357806355b6ed5c1461012457806370a082311461015c57806395d89b4114610184578063a0712d681461018c578063a9059cbb1461019f575f5ffd5b806306fdde031461009f578063095ea7b3146100bd57806318160ddd146100e057806323b872dd146100f2578063313ce56714610105575b5f5ffd5b6100a76101b2565b6040516100b491906105c4565b60405180910390f35b6100d06100cb366004610614565b61023d565b60405190151581526020016100b4565b6003545b6040519081526020016100b4565b6100d061010036600461063c565b6102a9565b6002546101129060ff1681565b60405160ff90911681526020016100b4565b6100e4610132366004610676565b6001600160a01b039182165f90815260056020908152604080832093909416825291909152205490565b6100e461016a3660046106a7565b6001600160a01b03165f9081526004602052604090205490565b6100a7610393565b6100d061019a3660046106c7565b6103a0565b6100d06101ad366004610614565b6103b3565b5f80546101be906106de565b80601f01602080910402602001604051908101604052809291908181526020018280546101ea906106de565b80156102355780601f1061020c57610100808354040283529160200191610235565b820191905f5260205f20905b81548152906001019060200180831161021857829003601f168201915b505050505081565b335f8181526005602090815260408083206001600160a01b038716808552925280832085905551919290917f8c5be1e5ebec7d5bd14f71427d1e84f3dd0314c0f7b2291e5b200ac8c7c3b925906102979086815260200190565b60405180910390a35060015b92915050565b6001600160a01b0383165f9081526005602090815260408083203384529091528120548281101561031a5760405162461bcd60e51b8152602060048201526016602482015275696e73756666696369656e7420616c6c6f77616e636560501b60448201526064015b60405180910390fd5b610324838261072a565b6001600160a01b0386165f81815260056020908152604080832033808552908352928190208590555193845290927f8c5be1e5ebec7d5bd14f71427d1e84f3dd0314c0f7b2291e5b200ac8c7c3b925910160405180910390a36103888585856103c8565b506001949350505050565b600180546101be906106de565b5f6103ab33836104e8565b506001919050565b5f6103bf3384846103c8565b50600192915050565b6001600160a01b03821661041e5760405162461bcd60e51b815260206004820152601860248201527f7472616e7366657220746f207a65726f206164647265737300000000000000006044820152606401610311565b6001600160a01b0383165f908152600460205260409020548181101561047b5760405162461bcd60e51b8152602060048201526012602482015271696e73756666696369656e742066756e647360701b6044820152606401610311565b6001600160a01b038085165f8181526004602052604080822086860390559286168082529083902080548601905591517fddf252ad1be2c89b69c2b068fc378daa952ba7f163c4a11628f55a4df523b3ef906104da9086815260200190565b60405180910390a350505050565b6001600160a01b03821661053e5760405162461bcd60e51b815260206004820152601860248201527f63616e6e6f74206d696e7420746f2061646472657373203000000000000000006044820152606401610311565b8060035f82825461054f919061073d565b90915550506001600160a01b0382165f908152600460205260408120805483929061057b90849061073d565b90915550506040518181526001600160a01b038316905f907fddf252ad1be2c89b69c2b068fc378daa952ba7f163c4a11628f55a4df523b3ef9060200160405180910390a35050565b602081525f82518060208401528060208501604085015e5f604082850101526040601f19601f83011684010191505092915050565b80356001600160a01b038116811461060f575f5ffd5b919050565b5f5f60408385031215610625575f5ffd5b61062e836105f9565b946020939093013593505050565b5f5f5f6060848603121561064e575f5ffd5b610657846105f9565b9250610665602085016105f9565b929592945050506040919091013590565b5f5f60408385031215610687575f5ffd5b610690836105f9565b915061069e602084016105f9565b90509250929050565b5f602082840312156106b7575f5ffd5b6106c0826105f9565b9392505050565b5f602082840312156106d7575f5ffd5b5035919050565b600181811c908216806106f257607f821691505b60208210810361071057634e487b7160e01b5f52602260045260245ffd5b50919050565b634e487b7160e01b5f52601160045260245ffd5b818103818111156102a3576102a3610716565b808201808211156102a3576102a361071656fea26469706673582212202262ea330cd127360ae145759812ef6318413342177f7f4a3e1b78185234f01b64736f6c634300081c0033",
  "linkReferences": {},
  "deployedLinkReferences": {},
  "immutableReferences": {},
  "inputSourceName": "project/contracts/reward.sol",
  "buildInfoId": "solc-0_8_28-f3fbd0c14cb34231e9e75a00d6163ec3eca223be"
}