{
  "_format": "hh3-artifact-1",
  "contractName": "TimelockedVault",
  "sourceName": "contracts/Timelock.sol",
  "abi": [
    {
      "inputs": [
        {
          "internalType": "uint256",
          "name": "_unlockTime",
          "type": "uint256"
        }
      ],
      "name": "deposit",
      "outputs": [],
      "stateMutability": "payable",
      "type": "function"
    },
    {
      "inputs": [
        {
          "internalType": "address",
          "name": "",
          "type": "address"
        }
      ],
      "name": "vaults",
      "outputs": [
        {
          "internalType": "uint256",
          "name": "amount",
          "type": "uint256"
        },
        {
          "internalType": "uint256",
          "name": "unlockTime",
          "type": "uint256"
        },
        {
          "internalType": "bool",
          "name": "status",
          "type": "bool"
        }
      ],
      "stateMutability": "view",
      "type": "function"
    },
    {
      "inputs": [],
      "name": "withdraw",
      "outputs": [],
      "stateMutability": "nonpayable",
      "type": "function"
    }
  ],
  "bytecode": "0x6080604052348015600e575f5ffd5b506103788061001c5f395ff3fe608060405260043610610033575f3560e01c80633ccfd60b14610037578063a622ee7c1461004d578063b6b55f25146100ab575b5f5ffd5b348015610042575f5ffd5b5061004b6100be565b005b348015610058575f5ffd5b5061008a6100673660046102fe565b5f6020819052908152604090208054600182015460029092015490919060ff1683565b60408051938452602084019290925215159082015260600160405180910390f35b61004b6100b936600461032b565b6101f7565b335f908152602081905260409020600281015460ff1661011d5760405162461bcd60e51b8152602060048201526015602482015274139bc81858dd1a5d99481d985d5b1d08199bdd5b99605a1b60448201526064015b60405180910390fd5b80600101544210156101695760405162461bcd60e51b815260206004820152601560248201527415985d5b1d081a5cc81cdd1a5b1b081b1bd8dad959605a1b6044820152606401610114565b80546040515f90339083908381818185875af1925050503d805f81146101aa576040519150601f19603f3d011682016040523d82523d5f602084013e6101af565b606091505b50509050806101f25760405162461bcd60e51b815260206004820152600f60248201526e151c985b9cd9995c8819985a5b1959608a1b6044820152606401610114565b505050565b5f34116102575760405162461bcd60e51b815260206004820152602860248201527f4d616b652061206d696e696d756d206465706f736974206772656174657220746044820152670d0c2dc40608ae8d60c31b6064820152608401610114565b4281116102b05760405162461bcd60e51b815260206004820152602160248201527f556e6c6f636b2074696d65206d75737420626520696e207468652066757475726044820152606560f81b6064820152608401610114565b6040805160608101825234815260208082019384526001828401818152335f908152928390529390912091518255925192810192909255516002909101805460ff1916911515919091179055565b5f6020828403121561030e575f5ffd5b81356001600160a01b0381168114610324575f5ffd5b9392505050565b5f6020828403121561033b575f5ffd5b503591905056fea2646970667358221220da93a30463ffa3a99424998590efbc4cd850eee1589719e1873e144a50d0b9ca64736f6c634300081c0033",
  "linkReferences": {},
  "deployedLinkReferences": {},
  "immutableReferences": {},
  "inputSourceName": "project/contracts/Timelock.sol",
  "buildInfoId": "solc-0_8_28-b01c4232f271fb8f2f6ba90cca58f1d20da0445b"
}