{
  "_format": "hh3-artifact-1",
  "contractName": "MilestoneEscrow",
  "sourceName": "contracts/Escrow2.sol",
  "abi": [
    {
      "inputs": [
        {
          "internalType": "address",
          "name": "_freelancer",
          "type": "address"
        },
        {
          "internalType": "uint256",
          "name": "_totalMilestones",
          "type": "uint256"
        },
        {
          "internalType": "uint256",
          "name": "_ethPerMilestone",
          "type": "uint256"
        }
      ],
      "stateMutability": "payable",
      "type": "constructor"
    },
    {
      "anonymous": false,
      "inputs": [],
      "name": "JobCompleted",
      "type": "event"
    },
    {
      "anonymous": false,
      "inputs": [
        {
          "indexed": true,
          "internalType": "address",
          "name": "freelancer",
          "type": "address"
        },
        {
          "indexed": false,
          "internalType": "uint256",
          "name": "totalMilestones",
          "type": "uint256"
        },
        {
          "indexed": false,
          "internalType": "uint256",
          "name": "totalAmount",
          "type": "uint256"
        }
      ],
      "name": "JobCreated",
      "type": "event"
    },
    {
      "anonymous": false,
      "inputs": [
        {
          "indexed": false,
          "internalType": "uint256",
          "name": "milestoneIndex",
          "type": "uint256"
        },
        {
          "indexed": false,
          "internalType": "uint256",
          "name": "amountReleased",
          "type": "uint256"
        }
      ],
      "name": "MilestoneApproved",
      "type": "event"
    },
    {
      "inputs": [],
      "name": "approveMilestone",
      "outputs": [],
      "stateMutability": "nonpayable",
      "type": "function"
    }
  ],
  "bytecode": "0x608060405260405161041a38038061041a833981016040819052610022916100fb565b6001600160a01b03831661007c5760405162461bcd60e51b815260206004820152601a60248201527f496e76616c696420667265656c616e6365722061646472657373000000000000604482015260640160405180910390fd5b5f80546001600160a01b03199081163317909155600180546001600160a01b038616921682178155600284905560048390556005805460ff19169091179055604080518481523460208201527fb2a675eb9aab63fd3920c070ffba60943c30f3cf2edeb1bf7b9ef40d37e20d31910160405180910390a250505061013a565b5f5f5f6060848603121561010d575f5ffd5b83516001600160a01b0381168114610123575f5ffd5b602085015160409095015190969495509392505050565b6102d3806101475f395ff3fe608060405234801561000f575f5ffd5b5060043610610029575f3560e01c806391f853391461002d575b5f5ffd5b610035610037565b005b5f546001600160a01b031633146100a55760405162461bcd60e51b815260206004820152602760248201527f4f6e6c792074686520636c69656e742063616e20706572666f726d20746869736044820152661030b1ba34b7b760c91b60648201526084015b60405180910390fd5b60055460ff166100f75760405162461bcd60e51b815260206004820152601760248201527f4a6f6220697320616c72656164792066696e6973686564000000000000000000604482015260640161009c565b6002546003541061014a5760405162461bcd60e51b815260206004820152601b60248201527f416c6c206d696c6573746f6e657320616c726561647920706169640000000000604482015260640161009c565b60038054905f61015983610279565b91905055506002546003540361019c576005805460ff191690556040517fc3feda8a94e1e6d26005ad24f78b1e773162175a4cfe587ffa6513036f1b17f5905f90a15b6001546004546040515f926001600160a01b031691908381818185875af1925050503d805f81146101e8576040519150601f19603f3d011682016040523d82523d5f602084013e6101ed565b606091505b50509050806102305760405162461bcd60e51b815260206004820152600f60248201526e151c985b9cd9995c8819985a5b1959608a1b604482015260640161009c565b7f939da3b627c123c81fe5aacebf925163337a0d4f8a03724640618078cad2489460035460045460405161026e929190918252602082015260400190565b60405180910390a150565b5f6001820161029657634e487b7160e01b5f52601160045260245ffd5b506001019056fea2646970667358221220cc8566888f2bda72fbce6cbb5a20a4d68b04c1efe9e2eaafa5cee71dcc6f5c9564736f6c634300081c0033",
  "linkReferences": {},
  "deployedLinkReferences": {},
  "immutableReferences": {},
  "inputSourceName": "project/contracts/Escrow2.sol",
  "buildInfoId": "solc-0_8_28-ff8cf6cec8dfd8e769a5719a7762483a7ecaa3fc"
}