{
  "_format": "hh3-artifact-1",
  "contractName": "TimelockedVault",
  "sourceName": "contracts/Vault.sol",
  "abi": [
    {
      "stateMutability": "payable",
      "type": "fallback"
    },
    {
      "inputs": [
        {
          "internalType": "uint256",
          "name": "_unlockTime",
          "type": "uint256"
        }
      ],
      "name": "deposit",
      "outputs": [],
      "stateMutability": "payable",
      "type": "function"
    },
    {
      "inputs": [
        {
          "internalType": "address",
          "name": "",
          "type": "address"
        }
      ],
      "name": "savings",
      "outputs": [
        {
          "internalType": "uint256",
          "name": "balance",
          "type": "uint256"
        },
        {
          "internalType": "uint256",
          "name": "unlockTime",
          "type": "uint256"
        }
      ],
      "stateMutability": "view",
      "type": "function"
    },
    {
      "inputs": [],
      "name": "withdraw",
      "outputs": [],
      "stateMutability": "nonpayable",
      "type": "function"
    },
    {
      "stateMutability": "payable",
      "type": "receive"
    }
  ],
  "bytecode": "0x6080604052348015600e575f5ffd5b506103e18061001c5f395ff3fe608060405260043610610037575f3560e01c80631f7cdd5f146100bf5780633ccfd60b1461010a578063b6b55f251461012057610080565b366100805760405162461bcd60e51b81526020600482015260146024820152732ab9b2903232b837b9b4ba10333ab731ba34b7b760611b60448201526064015b60405180910390fd5b60405162461bcd60e51b81526020600482015260146024820152732ab9b2903232b837b9b4ba10333ab731ba34b7b760611b6044820152606401610077565b3480156100ca575f5ffd5b506100f16100d9366004610367565b5f602081905290815260409020805460019091015482565b6040805192835260208301919091520160405180910390f35b348015610115575f5ffd5b5061011e610133565b005b61011e61012e366004610394565b610264565b335f90815260208190526040902080546101815760405162461bcd60e51b815260206004820152600f60248201526e139bc81858dd1a5d99481d985d5b1d608a1b6044820152606401610077565b80600101544210156101cd5760405162461bcd60e51b815260206004820152601560248201527415985d5b1d081a5cc81cdd1a5b1b081b1bd8dad959605a1b6044820152606401610077565b80545f80835560018301819055604051339083908381818185875af1925050503d805f8114610217576040519150601f19603f3d011682016040523d82523d5f602084013e61021c565b606091505b505090508061025f5760405162461bcd60e51b815260206004820152600f60248201526e151c985b9cd9995c8819985a5b1959608a1b6044820152606401610077565b505050565b335f908152602081905260409020346102bf5760405162461bcd60e51b815260206004820152601e60248201527f4465706f736974206d7573742062652067726561746572207468616e203000006044820152606401610077565b4282116103185760405162461bcd60e51b815260206004820152602160248201527f556e6c6f636b2074696d65206d75737420626520696e207468652066757475726044820152606560f81b6064820152608401610077565b80541561035e5760405162461bcd60e51b81526020600482015260146024820152735661756c7420616c72656164792061637469766560601b6044820152606401610077565b34815560010155565b5f60208284031215610377575f5ffd5b81356001600160a01b038116811461038d575f5ffd5b9392505050565b5f602082840312156103a4575f5ffd5b503591905056fea2646970667358221220b23ed72db00e16e1a43d32a5b4329e2e587e0d387862b2ef7d5243a5a02aa3e564736f6c634300081c0033",
  "linkReferences": {},
  "deployedLinkReferences": {},
  "immutableReferences": {},
  "inputSourceName": "project/contracts/Vault.sol",
  "buildInfoId": "solc-0_8_28-3bc12cf82b426b16a2dacfe7c7b95dd9e8109ef7"
}