{
  "_format": "hh3-artifact-1",
  "contractName": "Todo",
  "sourceName": "contracts/Todo.sol",
  "abi": [
    {
      "anonymous": false,
      "inputs": [
        {
          "indexed": false,
          "internalType": "string",
          "name": "text",
          "type": "string"
        },
        {
          "indexed": false,
          "internalType": "uint256",
          "name": "deadline",
          "type": "uint256"
        }
      ],
      "name": "TodoCreated",
      "type": "event"
    },
    {
      "inputs": [
        {
          "internalType": "string",
          "name": "_text",
          "type": "string"
        },
        {
          "internalType": "uint256",
          "name": "_deadline",
          "type": "uint256"
        }
      ],
      "name": "createTodo",
      "outputs": [
        {
          "internalType": "uint256",
          "name": "",
          "type": "uint256"
        }
      ],
      "stateMutability": "nonpayable",
      "type": "function"
    },
    {
      "inputs": [
        {
          "internalType": "uint256",
          "name": "_id",
          "type": "uint256"
        }
      ],
      "name": "markAsDone",
      "outputs": [],
      "stateMutability": "nonpayable",
      "type": "function"
    }
  ],
  "bytecode": "0x6080604052348015600e575f5ffd5b506106568061001c5f395ff3fe608060405234801561000f575f5ffd5b5060043610610034575f3560e01c8063d74de14d14610038578063ece28c6c1461004d575b5f5ffd5b61004b610046366004610372565b610072565b005b61006061005b36600461039d565b6101a4565b60405190815260200160405180910390f35b5f8111801561008257505f548111155b6100c05760405162461bcd60e51b815260206004820152600a6024820152691a5b9d985b1a59081a5960b21b60448201526064015b60405180910390fd5b5f8181526001602052604081209060038083015460ff16908111156100e7576100e7610452565b146101225760405162461bcd60e51b815260206004820152600b60248201526a4e6f742070656e64696e6760a81b60448201526064016100b7565b60018101546001600160a01b031633146101745760405162461bcd60e51b81526020600482015260136024820152723ab730baba3437b934bd32b21021b0b63632b960691b60448201526064016100b7565b8060040154421115610193576003908101805460ff1916909117905550565b600301805460ff1916600117905550565b5f5f8351116101e25760405162461bcd60e51b815260206004820152600a602482015269115b5c1d1e481d195e1d60b21b60448201526064016100b7565b6101ee4261025861047a565b821161022f5760405162461bcd60e51b815260206004820152601060248201526f496e76616c696420646561646c696e6560801b60448201526064016100b7565b3361026b5760405162461bcd60e51b815260206004820152600c60248201526b5a65726f206164647265737360a01b60448201526064016100b7565b5f805490806102798361048d565b90915550506040805160a0810182525f80548252336020830152918101859052906060820190815260209081018490525f805481526001808352604091829020845181559284015190830180546001600160a01b0319166001600160a01b0390921691909117905582015160028201906102f39082610529565b506060820151816003015f6101000a81548160ff0219169083600381111561031d5761031d610452565b0217905550608082015181600401559050507f022c3fffe570decf2328dbf4f2af598df5112da7e31568af8b927c48276ccae383836040516103609291906105e4565b60405180910390a1505f545b92915050565b5f60208284031215610382575f5ffd5b5035919050565b634e487b7160e01b5f52604160045260245ffd5b5f5f604083850312156103ae575f5ffd5b823567ffffffffffffffff8111156103c4575f5ffd5b8301601f810185136103d4575f5ffd5b803567ffffffffffffffff8111156103ee576103ee610389565b604051601f8201601f19908116603f0116810167ffffffffffffffff8111828210171561041d5761041d610389565b604052818152828201602001871015610434575f5ffd5b816020840160208301375f6020928201830152969401359450505050565b634e487b7160e01b5f52602160045260245ffd5b634e487b7160e01b5f52601160045260245ffd5b8082018082111561036c5761036c610466565b5f6001820161049e5761049e610466565b5060010190565b600181811c908216806104b957607f821691505b6020821081036104d757634e487b7160e01b5f52602260045260245ffd5b50919050565b601f82111561052457805f5260205f20601f840160051c810160208510156105025750805b601f840160051c820191505b81811015610521575f815560010161050e565b50505b505050565b815167ffffffffffffffff81111561054357610543610389565b6105578161055184546104a5565b846104dd565b6020601f821160018114610589575f83156105725750848201515b5f19600385901b1c1916600184901b178455610521565b5f84815260208120601f198516915b828110156105b85787850151825560209485019460019092019101610598565b50848210156105d557868401515f19600387901b60f8161c191681555b50505050600190811b01905550565b604081525f83518060408401528060208601606085015e5f606082850101526060601f19601f830116840101915050826020830152939250505056fea2646970667358221220422aab76da81c357c07497ea804246ba9bc2ff7312712e4fc2334e7254ba51da64736f6c634300081c0033",
  "linkReferences": {},
  "deployedLinkReferences": {},
  "immutableReferences": {},
  "inputSourceName": "project/contracts/Todo.sol",
  "buildInfoId": "solc-0_8_28-0a18893556a201a54858b5d523ac1037fb68d670"
}