{
  "_format": "hh3-artifact-1",
  "contractName": "CrowdFunding",
  "sourceName": "contracts/contribute.sol",
  "abi": [
    {
      "inputs": [
        {
          "internalType": "uint256",
          "name": "_id",
          "type": "uint256"
        }
      ],
      "name": "contribute",
      "outputs": [],
      "stateMutability": "payable",
      "type": "function"
    },
    {
      "inputs": [
        {
          "internalType": "uint256",
          "name": "",
          "type": "uint256"
        },
        {
          "internalType": "address",
          "name": "",
          "type": "address"
        }
      ],
      "name": "contributorsFunds",
      "outputs": [
        {
          "internalType": "uint256",
          "name": "",
          "type": "uint256"
        }
      ],
      "stateMutability": "view",
      "type": "function"
    },
    {
      "inputs": [
        {
          "internalType": "uint256",
          "name": "_deadline",
          "type": "uint256"
        },
        {
          "internalType": "uint256",
          "name": "_targetAmount",
          "type": "uint256"
        }
      ],
      "name": "createPool",
      "outputs": [
        {
          "internalType": "uint256",
          "name": "",
          "type": "uint256"
        }
      ],
      "stateMutability": "nonpayable",
      "type": "function"
    },
    {
      "inputs": [
        {
          "internalType": "uint256",
          "name": "",
          "type": "uint256"
        }
      ],
      "name": "fundingStorage",
      "outputs": [
        {
          "internalType": "address",
          "name": "owner",
          "type": "address"
        },
        {
          "internalType": "uint256",
          "name": "deadline",
          "type": "uint256"
        },
        {
          "internalType": "uint256",
          "name": "targetAmount",
          "type": "uint256"
        },
        {
          "internalType": "uint256",
          "name": "totalCollected",
          "type": "uint256"
        }
      ],
      "stateMutability": "view",
      "type": "function"
    },
    {
      "inputs": [],
      "name": "poolCounter",
      "outputs": [
        {
          "internalType": "uint256",
          "name": "",
          "type": "uint256"
        }
      ],
      "stateMutability": "view",
      "type": "function"
    },
    {
      "inputs": [
        {
          "internalType": "uint256",
          "name": "_id",
          "type": "uint256"
        }
      ],
      "name": "refundFunds",
      "outputs": [],
      "stateMutability": "nonpayable",
      "type": "function"
    },
    {
      "inputs": [
        {
          "internalType": "uint256",
          "name": "_id",
          "type": "uint256"
        }
      ],
      "name": "withdrawFunds",
      "outputs": [],
      "stateMutability": "nonpayable",
      "type": "function"
    }
  ],
  "bytecode": "0x6080604052348015600e575f5ffd5b506108388061001c5f395ff3fe60806040526004361061006e575f3560e01c806374a110c21161004c57806374a110c21461012e57806385ddc29f1461015b5780639e3079cb14610191578063c1cbbca7146101a5575f5ffd5b806314bb706914610072578063155dd5ee146100ee57806315f1bbfe1461010f575b5f5ffd5b34801561007d575f5ffd5b506100bf61008c366004610753565b600160208190525f918252604090912080549181015460028201546003909201546001600160a01b039093169290919084565b604080516001600160a01b03909516855260208501939093529183015260608201526080015b60405180910390f35b3480156100f9575f5ffd5b5061010d610108366004610753565b6101b8565b005b34801561011a575f5ffd5b5061010d610129366004610753565b6103e3565b348015610139575f5ffd5b5061014d61014836600461076a565b610543565b6040519081526020016100e5565b348015610166575f5ffd5b5061014d61017536600461078a565b600260209081525f928352604080842090915290825290205481565b34801561019c575f5ffd5b5061014d5f5481565b61010d6101b3366004610753565b610614565b5f818152600160205260409020546001600160a01b031633146102225760405162461bcd60e51b815260206004820152601760248201527f4f6e6c79206f776e65722063616e20776974686472617700000000000000000060448201526064015b60405180910390fd5b5f818152600160205260409020600281015460039091015410156102885760405162461bcd60e51b815260206004820152601c60248201527f54617267657420616d6f756e74206861736e27742072656163686564000000006044820152606401610219565b5f81815260016020819052604090912001544210156102e95760405162461bcd60e51b815260206004820152601760248201527f446561646c696e65206861736e277420726561636865640000000000000000006044820152606401610219565b5f8181526001602052604090206003015461033a5760405162461bcd60e51b815260206004820152601160248201527020b63932b0b23c902bb4ba34323930bbb760791b6044820152606401610219565b5f818152600160205260408082206003018054908390559051909190339083905b5f6040518083038185875af1925050503d805f8114610395576040519150601f19603f3d011682016040523d82523d5f602084013e61039a565b606091505b50509050806103de5760405162461bcd60e51b815260206004820152601060248201526f151c985b9cd859995c8819985a5b195960821b6044820152606401610219565b505050565b5f818152600160208190526040909120015442111561043b5760405162461bcd60e51b8152602060048201526014602482015273111958591b1a5b99481a185cc81c995858da195960621b6044820152606401610219565b5f8181526002602090815260408083203384529091529020546104b25760405162461bcd60e51b815260206004820152602960248201527f596f75206469646e277420636f6e74726962757465206f7220616c7265616479604482015268081c99599d5b99195960ba1b6064820152608401610219565b5f8181526001602052604090206002810154600390910154106105175760405162461bcd60e51b815260206004820152601960248201527f54617267657420616d6f756e74206861732072656163686564000000000000006044820152606401610219565b5f818152600260209081526040808320338085529252808320805490849055905190929190839061035b565b5f5f82116105935760405162461bcd60e51b815260206004820152601960248201527f4d7573742062652067726561746572207468616e207a65726f000000000000006044820152606401610219565b5f805490806105a1836107d7565b90915550506040805160808101825233815260208082018681528284018681525f6060850181815281548252600194859052958120945185546001600160a01b0319166001600160a01b039091161785559151928401929092559051600283015591516003909101555490505b92915050565b5f818152600160205260409020546001600160a01b031661066d5760405162461bcd60e51b8152602060048201526013602482015272141bdbdb08191bd95cc81b9bdd08195e1a5cdd606a1b6044820152606401610219565b5f818152600160208190526040909120015442106106bf5760405162461bcd60e51b815260206004820152600f60248201526e111958591b1a5b99481c185cdcd959608a1b6044820152606401610219565b5f34116106fe5760405162461bcd60e51b815260206004820152600d60248201526c09aeae6e840e6cadcc840cae8d609b1b6044820152606401610219565b5f818152600260209081526040808320338452909152812080543492906107269084906107ef565b90915550505f818152600160205260408120600301805434929061074b9084906107ef565b909155505050565b5f60208284031215610763575f5ffd5b5035919050565b5f5f6040838503121561077b575f5ffd5b50508035926020909101359150565b5f5f6040838503121561079b575f5ffd5b8235915060208301356001600160a01b03811681146107b8575f5ffd5b809150509250929050565b634e487b7160e01b5f52601160045260245ffd5b5f600182016107e8576107e86107c3565b5060010190565b8082018082111561060e5761060e6107c356fea2646970667358221220e0fcac2d321f0093d022c02feada464c83b927a0774f488b12a8a52124d5b5cc64736f6c634300081c0033",
  "linkReferences": {},
  "deployedLinkReferences": {},
  "immutableReferences": {},
  "inputSourceName": "project/contracts/contribute.sol",
  "buildInfoId": "solc-0_8_28-255b4aa2936840399315821110c6b09db03a7723"
}