{"project/contracts/todo.sol":{"Todo":{"abi":[{"anonymous":false,"inputs":[{"indexed":false,"internalType":"string","name":"text","type":"string"},{"indexed":false,"internalType":"enum Todo.Status","name":"status","type":"uint8"}],"name":"MarkTodoAsDone","type":"event"},{"anonymous":false,"inputs":[{"indexed":false,"internalType":"string","name":"text","type":"string"},{"indexed":false,"internalType":"uint256","name":"deadline","type":"uint256"}],"name":"TodoCreated","type":"event"},{"inputs":[{"internalType":"string","name":"_text","type":"string"},{"internalType":"uint256","name":"_deadline","type":"uint256"}],"name":"createTodo","outputs":[{"internalType":"uint256","name":"","type":"uint256"}],"stateMutability":"nonpayable","type":"function"},{"inputs":[{"internalType":"uint256","name":"_id","type":"uint256"}],"name":"markAsDone","outputs":[{"internalType":"bool","name":"","type":"bool"}],"stateMutability":"nonpayable","type":"function"},{"inputs":[{"internalType":"uint256","name":"_id","type":"uint256"}],"name":"updateTodo","outputs":[{"internalType":"bool","name":"","type":"bool"}],"stateMutability":"nonpayable","type":"function"}],"evm":{"bytecode":{"linkReferences":{},"object":"6080604052348015600e575f5ffd5b506110168061001c5f395ff3fe608060405234801561000f575f5ffd5b506004361061003f575f3560e01c806361a41c0814610043578063d74de14d14610073578063ece28c6c146100a3575b5f5ffd5b61005d60048036038101906100589190610631565b6100d3565b60405161006a9190610676565b60405180910390f35b61008d60048036038101906100889190610631565b610128565b60405161009a9190610676565b60405180910390f35b6100bd60048036038101906100b891906107cb565b610391565b6040516100ca9190610834565b60405180910390f35b5f5f821180156100e457505f548211155b610123576040517f08c379a000000000000000000000000000000000000000000000000000000000815260040161011a906108a7565b60405180910390fd5b919050565b5f5f8211801561013957505f548211155b610178576040517f08c379a000000000000000000000000000000000000000000000000000000000815260040161016f906108a7565b60405180910390fd5b3373ffffffffffffffffffffffffffffffffffffffff1660015f8481526020019081526020015f206001015f9054906101000a900473ffffffffffffffffffffffffffffffffffffffff1673ffffffffffffffffffffffffffffffffffffffff1614610219576040517f08c379a00000000000000000000000000000000000000000000000000000000081526004016102109061090f565b60405180910390fd5b5f600381111561022c5761022b61092d565b5b60015f8481526020019081526020015f206003015f9054906101000a900460ff16600381111561025f5761025e61092d565b5b1461029f576040517f08c379a0000000000000000000000000000000000000000000000000000000008152600401610296906109a4565b60405180910390fd5b60015f8381526020019081526020015f20600401544211156102ff57600360015f8481526020019081526020015f206003015f6101000a81548160ff021916908360038111156102f2576102f161092d565b5b02179055505f905061038c565b6001805f8481526020019081526020015f206003015f6101000a81548160ff021916908360038111156103355761033461092d565b5b02179055507f05ac97bb70f6bf250538c0780b2545db311a6f6ab9e6ffcde2d9ef81bcba02e160015f8481526020019081526020015f20600201600160405161037f929190610af8565b60405180910390a1600190505b919050565b5f5f8351116103d5576040517f08c379a00000000000000000000000000000000000000000000000000000000081526004016103cc90610b70565b60405180910390fd5b610258426103e39190610bbb565b8211610424576040517f08c379a000000000000000000000000000000000000000000000000000000000815260040161041b90610c38565b60405180910390fd5b5f73ffffffffffffffffffffffffffffffffffffffff163373ffffffffffffffffffffffffffffffffffffffff1603610492576040517f08c379a000000000000000000000000000000000000000000000000000000000815260040161048990610ca0565b60405180910390fd5b5f5f8154809291906104a390610cbe565b91905055506040518060a001604052805f5481526020013373ffffffffffffffffffffffffffffffffffffffff1681526020018481526020015f60038111156104ef576104ee61092d565b5b81526020018381525060015f5f5481526020019081526020015f205f820151815f01556020820151816001015f6101000a81548173ffffffffffffffffffffffffffffffffffffffff021916908373ffffffffffffffffffffffffffffffffffffffff160217905550604082015181600201908161056d9190610e9d565b506060820151816003015f6101000a81548160ff021916908360038111156105985761059761092d565b5b0217905550608082015181600401559050507f022c3fffe570decf2328dbf4f2af598df5112da7e31568af8b927c48276ccae383836040516105db929190610fb2565b60405180910390a15f54905092915050565b5f604051905090565b5f5ffd5b5f5ffd5b5f819050919050565b610610816105fe565b811461061a575f5ffd5b50565b5f8135905061062b81610607565b92915050565b5f60208284031215610646576106456105f6565b5b5f6106538482850161061d565b91505092915050565b5f8115159050919050565b6106708161065c565b82525050565b5f6020820190506106895f830184610667565b92915050565b5f5ffd5b5f5ffd5b5f601f19601f8301169050919050565b7f4e487b71000000000000000000000000000000000000000000000000000000005f52604160045260245ffd5b6106dd82610697565b810181811067ffffffffffffffff821117156106fc576106fb6106a7565b5b80604052505050565b5f61070e6105ed565b905061071a82826106d4565b919050565b5f67ffffffffffffffff821115610739576107386106a7565b5b61074282610697565b9050602081019050919050565b828183375f83830152505050565b5f61076f61076a8461071f565b610705565b90508281526020810184848401111561078b5761078a610693565b5b61079684828561074f565b509392505050565b5f82601f8301126107b2576107b161068f565b5b81356107c284826020860161075d565b91505092915050565b5f5f604083850312156107e1576107e06105f6565b5b5f83013567ffffffffffffffff8111156107fe576107fd6105fa565b5b61080a8582860161079e565b925050602061081b8582860161061d565b9150509250929050565b61082e816105fe565b82525050565b5f6020820190506108475f830184610825565b92915050565b5f82825260208201905092915050565b7f496e76616c6964206964000000000000000000000000000000000000000000005f82015250565b5f610891600a8361084d565b915061089c8261085d565b602082019050919050565b5f6020820190508181035f8301526108be81610885565b9050919050565b7f556e617574686f72697a656400000000000000000000000000000000000000005f82015250565b5f6108f9600c8361084d565b9150610904826108c5565b602082019050919050565b5f6020820190508181035f830152610926816108ed565b9050919050565b7f4e487b71000000000000000000000000000000000000000000000000000000005f52602160045260245ffd5b7f4e6f742050656e64696e670000000000000000000000000000000000000000005f82015250565b5f61098e600b8361084d565b91506109998261095a565b602082019050919050565b5f6020820190508181035f8301526109bb81610982565b9050919050565b7f4e487b71000000000000000000000000000000000000000000000000000000005f52602260045260245ffd5b5f6002820490506001821680610a0657607f821691505b602082108103610a1957610a186109c2565b5b50919050565b5f819050815f5260205f209050919050565b5f8154610a3d816109ef565b610a47818661084d565b9450600182165f8114610a615760018114610a7757610aa9565b60ff198316865281151560200286019350610aa9565b610a8085610a1f565b5f5b83811015610aa157815481890152600182019150602081019050610a82565b808801955050505b50505092915050565b60048110610ac357610ac261092d565b5b50565b5f819050610ad382610ab2565b919050565b5f610ae282610ac6565b9050919050565b610af281610ad8565b82525050565b5f6040820190508181035f830152610b108185610a31565b9050610b1f6020830184610ae9565b9392505050565b7f456d7074792074657874000000000000000000000000000000000000000000005f82015250565b5f610b5a600a8361084d565b9150610b6582610b26565b602082019050919050565b5f6020820190508181035f830152610b8781610b4e565b9050919050565b7f4e487b71000000000000000000000000000000000000000000000000000000005f52601160045260245ffd5b5f610bc5826105fe565b9150610bd0836105fe565b9250828201905080821115610be857610be7610b8e565b5b92915050565b7f496e76616c696420646561646c696e65000000000000000000000000000000005f82015250565b5f610c2260108361084d565b9150610c2d82610bee565b602082019050919050565b5f6020820190508181035f830152610c4f81610c16565b9050919050565b7f5a65726f204164647265737320557365640000000000000000000000000000005f82015250565b5f610c8a60118361084d565b9150610c9582610c56565b602082019050919050565b5f6020820190508181035f830152610cb781610c7e565b9050919050565b5f610cc8826105fe565b91507fffffffffffffffffffffffffffffffffffffffffffffffffffffffffffffffff8203610cfa57610cf9610b8e565b5b600182019050919050565b5f81519050919050565b5f6020601f8301049050919050565b5f82821b905092915050565b5f60088302610d597fffffffffffffffffffffffffffffffffffffffffffffffffffffffffffffffff82610d1e565b610d638683610d1e565b95508019841693508086168417925050509392505050565b5f819050919050565b5f610d9e610d99610d94846105fe565b610d7b565b6105fe565b9050919050565b5f819050919050565b610db783610d84565b610dcb610dc382610da5565b848454610d2a565b825550505050565b5f5f905090565b610de2610dd3565b610ded818484610dae565b505050565b5b81811015610e1057610e055f82610dda565b600181019050610df3565b5050565b601f821115610e5557610e2681610a1f565b610e2f84610d0f565b81016020851015610e3e578190505b610e52610e4a85610d0f565b830182610df2565b50505b505050565b5f82821c905092915050565b5f610e755f1984600802610e5a565b1980831691505092915050565b5f610e8d8383610e66565b9150826002028217905092915050565b610ea682610d05565b67ffffffffffffffff811115610ebf57610ebe6106a7565b5b610ec982546109ef565b610ed4828285610e14565b5f60209050601f831160018114610f05575f8415610ef3578287015190505b610efd8582610e82565b865550610f64565b601f198416610f1386610a1f565b5f5b82811015610f3a57848901518255600182019150602085019450602081019050610f15565b86831015610f575784890151610f53601f891682610e66565b8355505b6001600288020188555050505b505050505050565b8281835e5f83830152505050565b5f610f8482610d05565b610f8e818561084d565b9350610f9e818560208601610f6c565b610fa781610697565b840191505092915050565b5f6040820190508181035f830152610fca8185610f7a565b9050610fd96020830184610825565b939250505056fea264697066735822122057fddc956429462e943b3843b3050707248447541cb231d2746bc3493bc9a60b64736f6c634300081c0033","opcodes":"PUSH1 0x80 PUSH1 0x40 MSTORE CALLVALUE DUP1 ISZERO PUSH1 0xE JUMPI PUSH0 PUSH0 REVERT JUMPDEST POP PUSH2 0x1016 DUP1 PUSH2 0x1C PUSH0 CODECOPY PUSH0 RETURN INVALID PUSH1 0x80 PUSH1 0x40 MSTORE CALLVALUE DUP1 ISZERO PUSH2 0xF JUMPI PUSH0 PUSH0 REVERT JUMPDEST POP PUSH1 0x4 CALLDATASIZE LT PUSH2 0x3F JUMPI PUSH0 CALLDATALOAD PUSH1 0xE0 SHR DUP1 PUSH4 0x61A41C08 EQ PUSH2 0x43 JUMPI DUP1 PUSH4 0xD74DE14D EQ PUSH2 0x73 JUMPI DUP1 PUSH4 0xECE28C6C EQ PUSH2 0xA3 JUMPI JUMPDEST PUSH0 PUSH0 REVERT JUMPDEST PUSH2 0x5D PUSH1 0x4 DUP1 CALLDATASIZE SUB DUP2 ADD SWAP1 PUSH2 0x58 SWAP2 SWAP1 PUSH2 0x631 JUMP JUMPDEST PUSH2 0xD3 JUMP JUMPDEST PUSH1 0x40 MLOAD PUSH2 0x6A SWAP2 SWAP1 PUSH2 0x676 JUMP JUMPDEST PUSH1 0x40 MLOAD DUP1 SWAP2 SUB SWAP1 RETURN JUMPDEST PUSH2 0x8D PUSH1 0x4 DUP1 CALLDATASIZE SUB DUP2 ADD SWAP1 PUSH2 0x88 SWAP2 SWAP1 PUSH2 0x631 JUMP JUMPDEST PUSH2 0x128 JUMP JUMPDEST PUSH1 0x40 MLOAD PUSH2 0x9A SWAP2 SWAP1 PUSH2 0x676 JUMP JUMPDEST PUSH1 0x40 MLOAD DUP1 SWAP2 SUB SWAP1 RETURN JUMPDEST PUSH2 0xBD PUSH1 0x4 DUP1 CALLDATASIZE SUB DUP2 ADD SWAP1 PUSH2 0xB8 SWAP2 SWAP1 PUSH2 0x7CB JUMP JUMPDEST PUSH2 0x391 JUMP JUMPDEST PUSH1 0x40 MLOAD PUSH2 0xCA SWAP2 SWAP1 PUSH2 0x834 JUMP JUMPDEST PUSH1 0x40 MLOAD DUP1 SWAP2 SUB SWAP1 RETURN JUMPDEST PUSH0 PUSH0 DUP3 GT DUP1 ISZERO PUSH2 0xE4 JUMPI POP PUSH0 SLOAD DUP3 GT ISZERO JUMPDEST PUSH2 0x123 JUMPI PUSH1 0x40 MLOAD PUSH32 0x8C379A000000000000000000000000000000000000000000000000000000000 DUP2 MSTORE PUSH1 0x4 ADD PUSH2 0x11A SWAP1 PUSH2 0x8A7 JUMP JUMPDEST PUSH1 0x40 MLOAD DUP1 SWAP2 SUB SWAP1 REVERT JUMPDEST SWAP2 SWAP1 POP JUMP JUMPDEST PUSH0 PUSH0 DUP3 GT DUP1 ISZERO PUSH2 0x139 JUMPI POP PUSH0 SLOAD DUP3 GT ISZERO JUMPDEST PUSH2 0x178 JUMPI PUSH1 0x40 MLOAD PUSH32 0x8C379A000000000000000000000000000000000000000000000000000000000 DUP2 MSTORE PUSH1 0x4 ADD PUSH2 0x16F SWAP1 PUSH2 0x8A7 JUMP JUMPDEST PUSH1 0x40 MLOAD DUP1 SWAP2 SUB SWAP1 REVERT JUMPDEST CALLER PUSH20 0xFFFFFFFFFFFFFFFFFFFFFFFFFFFFFFFFFFFFFFFF AND PUSH1 0x1 PUSH0 DUP5 DUP2 MSTORE PUSH1 0x20 ADD SWAP1 DUP2 MSTORE PUSH1 0x20 ADD PUSH0 KECCAK256 PUSH1 0x1 ADD PUSH0 SWAP1 SLOAD SWAP1 PUSH2 0x100 EXP SWAP1 DIV PUSH20 0xFFFFFFFFFFFFFFFFFFFFFFFFFFFFFFFFFFFFFFFF AND PUSH20 0xFFFFFFFFFFFFFFFFFFFFFFFFFFFFFFFFFFFFFFFF AND EQ PUSH2 0x219 JUMPI PUSH1 0x40 MLOAD PUSH32 0x8C379A000000000000000000000000000000000000000000000000000000000 DUP2 MSTORE PUSH1 0x4 ADD PUSH2 0x210 SWAP1 PUSH2 0x90F JUMP JUMPDEST PUSH1 0x40 MLOAD DUP1 SWAP2 SUB SWAP1 REVERT JUMPDEST PUSH0 PUSH1 0x3 DUP2 GT ISZERO PUSH2 0x22C JUMPI PUSH2 0x22B PUSH2 0x92D JUMP JUMPDEST JUMPDEST PUSH1 0x1 PUSH0 DUP5 DUP2 MSTORE PUSH1 0x20 ADD SWAP1 DUP2 MSTORE PUSH1 0x20 ADD PUSH0 KECCAK256 PUSH1 0x3 ADD PUSH0 SWAP1 SLOAD SWAP1 PUSH2 0x100 EXP SWAP1 DIV PUSH1 0xFF AND PUSH1 0x3 DUP2 GT ISZERO PUSH2 0x25F JUMPI PUSH2 0x25E PUSH2 0x92D JUMP JUMPDEST JUMPDEST EQ PUSH2 0x29F JUMPI PUSH1 0x40 MLOAD PUSH32 0x8C379A000000000000000000000000000000000000000000000000000000000 DUP2 MSTORE PUSH1 0x4 ADD PUSH2 0x296 SWAP1 PUSH2 0x9A4 JUMP JUMPDEST PUSH1 0x40 MLOAD DUP1 SWAP2 SUB SWAP1 REVERT JUMPDEST PUSH1 0x1 PUSH0 DUP4 DUP2 MSTORE PUSH1 0x20 ADD SWAP1 DUP2 MSTORE PUSH1 0x20 ADD PUSH0 KECCAK256 PUSH1 0x4 ADD SLOAD TIMESTAMP GT ISZERO PUSH2 0x2FF JUMPI PUSH1 0x3 PUSH1 0x1 PUSH0 DUP5 DUP2 MSTORE PUSH1 0x20 ADD SWAP1 DUP2 MSTORE PUSH1 0x20 ADD PUSH0 KECCAK256 PUSH1 0x3 ADD PUSH0 PUSH2 0x100 EXP DUP2 SLOAD DUP2 PUSH1 0xFF MUL NOT AND SWAP1 DUP4 PUSH1 0x3 DUP2 GT ISZERO PUSH2 0x2F2 JUMPI PUSH2 0x2F1 PUSH2 0x92D JUMP JUMPDEST JUMPDEST MUL OR SWAP1 SSTORE POP PUSH0 SWAP1 POP PUSH2 0x38C JUMP JUMPDEST PUSH1 0x1 DUP1 PUSH0 DUP5 DUP2 MSTORE PUSH1 0x20 ADD SWAP1 DUP2 MSTORE PUSH1 0x20 ADD PUSH0 KECCAK256 PUSH1 0x3 ADD PUSH0 PUSH2 0x100 EXP DUP2 SLOAD DUP2 PUSH1 0xFF MUL NOT AND SWAP1 DUP4 PUSH1 0x3 DUP2 GT ISZERO PUSH2 0x335 JUMPI PUSH2 0x334 PUSH2 0x92D JUMP JUMPDEST JUMPDEST MUL OR SWAP1 SSTORE POP PUSH32 0x5AC97BB70F6BF250538C0780B2545DB311A6F6AB9E6FFCDE2D9EF81BCBA02E1 PUSH1 0x1 PUSH0 DUP5 DUP2 MSTORE PUSH1 0x20 ADD SWAP1 DUP2 MSTORE PUSH1 0x20 ADD PUSH0 KECCAK256 PUSH1 0x2 ADD PUSH1 0x1 PUSH1 0x40 MLOAD PUSH2 0x37F SWAP3 SWAP2 SWAP1 PUSH2 0xAF8 JUMP JUMPDEST PUSH1 0x40 MLOAD DUP1 SWAP2 SUB SWAP1 LOG1 PUSH1 0x1 SWAP1 POP JUMPDEST SWAP2 SWAP1 POP JUMP JUMPDEST PUSH0 PUSH0 DUP4 MLOAD GT PUSH2 0x3D5 JUMPI PUSH1 0x40 MLOAD PUSH32 0x8C379A000000000000000000000000000000000000000000000000000000000 DUP2 MSTORE PUSH1 0x4 ADD PUSH2 0x3CC SWAP1 PUSH2 0xB70 JUMP JUMPDEST PUSH1 0x40 MLOAD DUP1 SWAP2 SUB SWAP1 REVERT JUMPDEST PUSH2 0x258 TIMESTAMP PUSH2 0x3E3 SWAP2 SWAP1 PUSH2 0xBBB JUMP JUMPDEST DUP3 GT PUSH2 0x424 JUMPI PUSH1 0x40 MLOAD PUSH32 0x8C379A000000000000000000000000000000000000000000000000000000000 DUP2 MSTORE PUSH1 0x4 ADD PUSH2 0x41B SWAP1 PUSH2 0xC38 JUMP JUMPDEST PUSH1 0x40 MLOAD DUP1 SWAP2 SUB SWAP1 REVERT JUMPDEST PUSH0 PUSH20 0xFFFFFFFFFFFFFFFFFFFFFFFFFFFFFFFFFFFFFFFF AND CALLER PUSH20 0xFFFFFFFFFFFFFFFFFFFFFFFFFFFFFFFFFFFFFFFF AND SUB PUSH2 0x492 JUMPI PUSH1 0x40 MLOAD PUSH32 0x8C379A000000000000000000000000000000000000000000000000000000000 DUP2 MSTORE PUSH1 0x4 ADD PUSH2 0x489 SWAP1 PUSH2 0xCA0 JUMP JUMPDEST PUSH1 0x40 MLOAD DUP1 SWAP2 SUB SWAP1 REVERT JUMPDEST PUSH0 PUSH0 DUP2 SLOAD DUP1 SWAP3 SWAP2 SWAP1 PUSH2 0x4A3 SWAP1 PUSH2 0xCBE JUMP JUMPDEST SWAP2 SWAP1 POP SSTORE POP PUSH1 0x40 MLOAD DUP1 PUSH1 0xA0 ADD PUSH1 0x40 MSTORE DUP1 PUSH0 SLOAD DUP2 MSTORE PUSH1 0x20 ADD CALLER PUSH20 0xFFFFFFFFFFFFFFFFFFFFFFFFFFFFFFFFFFFFFFFF AND DUP2 MSTORE PUSH1 0x20 ADD DUP5 DUP2 MSTORE PUSH1 0x20 ADD PUSH0 PUSH1 0x3 DUP2 GT ISZERO PUSH2 0x4EF JUMPI PUSH2 0x4EE PUSH2 0x92D JUMP JUMPDEST JUMPDEST DUP2 MSTORE PUSH1 0x20 ADD DUP4 DUP2 MSTORE POP PUSH1 0x1 PUSH0 PUSH0 SLOAD DUP2 MSTORE PUSH1 0x20 ADD SWAP1 DUP2 MSTORE PUSH1 0x20 ADD PUSH0 KECCAK256 PUSH0 DUP3 ADD MLOAD DUP2 PUSH0 ADD SSTORE PUSH1 0x20 DUP3 ADD MLOAD DUP2 PUSH1 0x1 ADD PUSH0 PUSH2 0x100 EXP DUP2 SLOAD DUP2 PUSH20 0xFFFFFFFFFFFFFFFFFFFFFFFFFFFFFFFFFFFFFFFF MUL NOT AND SWAP1 DUP4 PUSH20 0xFFFFFFFFFFFFFFFFFFFFFFFFFFFFFFFFFFFFFFFF AND MUL OR SWAP1 SSTORE POP PUSH1 0x40 DUP3 ADD MLOAD DUP2 PUSH1 0x2 ADD SWAP1 DUP2 PUSH2 0x56D SWAP2 SWAP1 PUSH2 0xE9D JUMP JUMPDEST POP PUSH1 0x60 DUP3 ADD MLOAD DUP2 PUSH1 0x3 ADD PUSH0 PUSH2 0x100 EXP DUP2 SLOAD DUP2 PUSH1 0xFF MUL NOT AND SWAP1 DUP4 PUSH1 0x3 DUP2 GT ISZERO PUSH2 0x598 JUMPI PUSH2 0x597 PUSH2 0x92D JUMP JUMPDEST JUMPDEST MUL OR SWAP1 SSTORE POP PUSH1 0x80 DUP3 ADD MLOAD DUP2 PUSH1 0x4 ADD SSTORE SWAP1 POP POP PUSH32 0x22C3FFFE570DECF2328DBF4F2AF598DF5112DA7E31568AF8B927C48276CCAE3 DUP4 DUP4 PUSH1 0x40 MLOAD PUSH2 0x5DB SWAP3 SWAP2 SWAP1 PUSH2 0xFB2 JUMP JUMPDEST PUSH1 0x40 MLOAD DUP1 SWAP2 SUB SWAP1 LOG1 PUSH0 SLOAD SWAP1 POP SWAP3 SWAP2 POP POP JUMP JUMPDEST PUSH0 PUSH1 0x40 MLOAD SWAP1 POP SWAP1 JUMP JUMPDEST PUSH0 PUSH0 REVERT JUMPDEST PUSH0 PUSH0 REVERT JUMPDEST PUSH0 DUP2 SWAP1 POP SWAP2 SWAP1 POP JUMP JUMPDEST PUSH2 0x610 DUP2 PUSH2 0x5FE JUMP JUMPDEST DUP2 EQ PUSH2 0x61A JUMPI PUSH0 PUSH0 REVERT JUMPDEST POP JUMP JUMPDEST PUSH0 DUP2 CALLDATALOAD SWAP1 POP PUSH2 0x62B DUP2 PUSH2 0x607 JUMP JUMPDEST SWAP3 SWAP2 POP POP JUMP JUMPDEST PUSH0 PUSH1 0x20 DUP3 DUP5 SUB SLT ISZERO PUSH2 0x646 JUMPI PUSH2 0x645 PUSH2 0x5F6 JUMP JUMPDEST JUMPDEST PUSH0 PUSH2 0x653 DUP5 DUP3 DUP6 ADD PUSH2 0x61D JUMP JUMPDEST SWAP2 POP POP SWAP3 SWAP2 POP POP JUMP JUMPDEST PUSH0 DUP2 ISZERO ISZERO SWAP1 POP SWAP2 SWAP1 POP JUMP JUMPDEST PUSH2 0x670 DUP2 PUSH2 0x65C JUMP JUMPDEST DUP3 MSTORE POP POP JUMP JUMPDEST PUSH0 PUSH1 0x20 DUP3 ADD SWAP1 POP PUSH2 0x689 PUSH0 DUP4 ADD DUP5 PUSH2 0x667 JUMP JUMPDEST SWAP3 SWAP2 POP POP JUMP JUMPDEST PUSH0 PUSH0 REVERT JUMPDEST PUSH0 PUSH0 REVERT JUMPDEST PUSH0 PUSH1 0x1F NOT PUSH1 0x1F DUP4 ADD AND SWAP1 POP SWAP2 SWAP1 POP JUMP JUMPDEST PUSH32 0x4E487B7100000000000000000000000000000000000000000000000000000000 PUSH0 MSTORE PUSH1 0x41 PUSH1 0x4 MSTORE PUSH1 0x24 PUSH0 REVERT JUMPDEST PUSH2 0x6DD DUP3 PUSH2 0x697 JUMP JUMPDEST DUP2 ADD DUP2 DUP2 LT PUSH8 0xFFFFFFFFFFFFFFFF DUP3 GT OR ISZERO PUSH2 0x6FC JUMPI PUSH2 0x6FB PUSH2 0x6A7 JUMP JUMPDEST JUMPDEST DUP1 PUSH1 0x40 MSTORE POP POP POP JUMP JUMPDEST PUSH0 PUSH2 0x70E PUSH2 0x5ED JUMP JUMPDEST SWAP1 POP PUSH2 0x71A DUP3 DUP3 PUSH2 0x6D4 JUMP JUMPDEST SWAP2 SWAP1 POP JUMP JUMPDEST PUSH0 PUSH8 0xFFFFFFFFFFFFFFFF DUP3 GT ISZERO PUSH2 0x739 JUMPI PUSH2 0x738 PUSH2 0x6A7 JUMP JUMPDEST JUMPDEST PUSH2 0x742 DUP3 PUSH2 0x697 JUMP JUMPDEST SWAP1 POP PUSH1 0x20 DUP2 ADD SWAP1 POP SWAP2 SWAP1 POP JUMP JUMPDEST DUP3 DUP2 DUP4 CALLDATACOPY PUSH0 DUP4 DUP4 ADD MSTORE POP POP POP JUMP JUMPDEST PUSH0 PUSH2 0x76F PUSH2 0x76A DUP5 PUSH2 0x71F JUMP JUMPDEST PUSH2 0x705 JUMP JUMPDEST SWAP1 POP DUP3 DUP2 MSTORE PUSH1 0x20 DUP2 ADD DUP5 DUP5 DUP5 ADD GT ISZERO PUSH2 0x78B JUMPI PUSH2 0x78A PUSH2 0x693 JUMP JUMPDEST JUMPDEST PUSH2 0x796 DUP5 DUP3 DUP6 PUSH2 0x74F JUMP JUMPDEST POP SWAP4 SWAP3 POP POP POP JUMP JUMPDEST PUSH0 DUP3 PUSH1 0x1F DUP4 ADD SLT PUSH2 0x7B2 JUMPI PUSH2 0x7B1 PUSH2 0x68F JUMP JUMPDEST JUMPDEST DUP2 CALLDATALOAD PUSH2 0x7C2 DUP5 DUP3 PUSH1 0x20 DUP7 ADD PUSH2 0x75D JUMP JUMPDEST SWAP2 POP POP SWAP3 SWAP2 POP POP JUMP JUMPDEST PUSH0 PUSH0 PUSH1 0x40 DUP4 DUP6 SUB SLT ISZERO PUSH2 0x7E1 JUMPI PUSH2 0x7E0 PUSH2 0x5F6 JUMP JUMPDEST JUMPDEST PUSH0 DUP4 ADD CALLDATALOAD PUSH8 0xFFFFFFFFFFFFFFFF DUP2 GT ISZERO PUSH2 0x7FE JUMPI PUSH2 0x7FD PUSH2 0x5FA JUMP JUMPDEST JUMPDEST PUSH2 0x80A DUP6 DUP3 DUP7 ADD PUSH2 0x79E JUMP JUMPDEST SWAP3 POP POP PUSH1 0x20 PUSH2 0x81B DUP6 DUP3 DUP7 ADD PUSH2 0x61D JUMP JUMPDEST SWAP2 POP POP SWAP3 POP SWAP3 SWAP1 POP JUMP JUMPDEST PUSH2 0x82E DUP2 PUSH2 0x5FE JUMP JUMPDEST DUP3 MSTORE POP POP JUMP JUMPDEST PUSH0 PUSH1 0x20 DUP3 ADD SWAP1 POP PUSH2 0x847 PUSH0 DUP4 ADD DUP5 PUSH2 0x825 JUMP JUMPDEST SWAP3 SWAP2 POP POP JUMP JUMPDEST PUSH0 DUP3 DUP3 MSTORE PUSH1 0x20 DUP3 ADD SWAP1 POP SWAP3 SWAP2 POP POP JUMP JUMPDEST PUSH32 0x496E76616C696420696400000000000000000000000000000000000000000000 PUSH0 DUP3 ADD MSTORE POP JUMP JUMPDEST PUSH0 PUSH2 0x891 PUSH1 0xA DUP4 PUSH2 0x84D JUMP JUMPDEST SWAP2 POP PUSH2 0x89C DUP3 PUSH2 0x85D JUMP JUMPDEST PUSH1 0x20 DUP3 ADD SWAP1 POP SWAP2 SWAP1 POP JUMP JUMPDEST PUSH0 PUSH1 0x20 DUP3 ADD SWAP1 POP DUP2 DUP2 SUB PUSH0 DUP4 ADD MSTORE PUSH2 0x8BE DUP2 PUSH2 0x885 JUMP JUMPDEST SWAP1 POP SWAP2 SWAP1 POP JUMP JUMPDEST PUSH32 0x556E617574686F72697A65640000000000000000000000000000000000000000 PUSH0 DUP3 ADD MSTORE POP JUMP JUMPDEST PUSH0 PUSH2 0x8F9 PUSH1 0xC DUP4 PUSH2 0x84D JUMP JUMPDEST SWAP2 POP PUSH2 0x904 DUP3 PUSH2 0x8C5 JUMP JUMPDEST PUSH1 0x20 DUP3 ADD SWAP1 POP SWAP2 SWAP1 POP JUMP JUMPDEST PUSH0 PUSH1 0x20 DUP3 ADD SWAP1 POP DUP2 DUP2 SUB PUSH0 DUP4 ADD MSTORE PUSH2 0x926 DUP2 PUSH2 0x8ED JUMP JUMPDEST SWAP1 POP SWAP2 SWAP1 POP JUMP JUMPDEST PUSH32 0x4E487B7100000000000000000000000000000000000000000000000000000000 PUSH0 MSTORE PUSH1 0x21 PUSH1 0x4 MSTORE PUSH1 0x24 PUSH0 REVERT JUMPDEST PUSH32 0x4E6F742050656E64696E67000000000000000000000000000000000000000000 PUSH0 DUP3 ADD MSTORE POP JUMP JUMPDEST PUSH0 PUSH2 0x98E PUSH1 0xB DUP4 PUSH2 0x84D JUMP JUMPDEST SWAP2 POP PUSH2 0x999 DUP3 PUSH2 0x95A JUMP JUMPDEST PUSH1 0x20 DUP3 ADD SWAP1 POP SWAP2 SWAP1 POP JUMP JUMPDEST PUSH0 PUSH1 0x20 DUP3 ADD SWAP1 POP DUP2 DUP2 SUB PUSH0 DUP4 ADD MSTORE PUSH2 0x9BB DUP2 PUSH2 0x982 JUMP JUMPDEST SWAP1 POP SWAP2 SWAP1 POP JUMP JUMPDEST PUSH32 0x4E487B7100000000000000000000000000000000000000000000000000000000 PUSH0 MSTORE PUSH1 0x22 PUSH1 0x4 MSTORE PUSH1 0x24 PUSH0 REVERT JUMPDEST PUSH0 PUSH1 0x2 DUP3 DIV SWAP1 POP PUSH1 0x1 DUP3 AND DUP1 PUSH2 0xA06 JUMPI PUSH1 0x7F DUP3 AND SWAP2 POP JUMPDEST PUSH1 0x20 DUP3 LT DUP2 SUB PUSH2 0xA19 JUMPI PUSH2 0xA18 PUSH2 0x9C2 JUMP JUMPDEST JUMPDEST POP SWAP2 SWAP1 POP JUMP JUMPDEST PUSH0 DUP2 SWAP1 POP DUP2 PUSH0 MSTORE PUSH1 0x20 PUSH0 KECCAK256 SWAP1 POP SWAP2 SWAP1 POP JUMP JUMPDEST PUSH0 DUP2 SLOAD PUSH2 0xA3D DUP2 PUSH2 0x9EF JUMP JUMPDEST PUSH2 0xA47 DUP2 DUP7 PUSH2 0x84D JUMP JUMPDEST SWAP5 POP PUSH1 0x1 DUP3 AND PUSH0 DUP2 EQ PUSH2 0xA61 JUMPI PUSH1 0x1 DUP2 EQ PUSH2 0xA77 JUMPI PUSH2 0xAA9 JUMP JUMPDEST PUSH1 0xFF NOT DUP4 AND DUP7 MSTORE DUP2 ISZERO ISZERO PUSH1 0x20 MUL DUP7 ADD SWAP4 POP PUSH2 0xAA9 JUMP JUMPDEST PUSH2 0xA80 DUP6 PUSH2 0xA1F JUMP JUMPDEST PUSH0 JUMPDEST DUP4 DUP2 LT ISZERO PUSH2 0xAA1 JUMPI DUP2 SLOAD DUP2 DUP10 ADD MSTORE PUSH1 0x1 DUP3 ADD SWAP2 POP PUSH1 0x20 DUP2 ADD SWAP1 POP PUSH2 0xA82 JUMP JUMPDEST DUP1 DUP9 ADD SWAP6 POP POP POP JUMPDEST POP POP POP SWAP3 SWAP2 POP POP JUMP JUMPDEST PUSH1 0x4 DUP2 LT PUSH2 0xAC3 JUMPI PUSH2 0xAC2 PUSH2 0x92D JUMP JUMPDEST JUMPDEST POP JUMP JUMPDEST PUSH0 DUP2 SWAP1 POP PUSH2 0xAD3 DUP3 PUSH2 0xAB2 JUMP JUMPDEST SWAP2 SWAP1 POP JUMP JUMPDEST PUSH0 PUSH2 0xAE2 DUP3 PUSH2 0xAC6 JUMP JUMPDEST SWAP1 POP SWAP2 SWAP1 POP JUMP JUMPDEST PUSH2 0xAF2 DUP2 PUSH2 0xAD8 JUMP JUMPDEST DUP3 MSTORE POP POP JUMP JUMPDEST PUSH0 PUSH1 0x40 DUP3 ADD SWAP1 POP DUP2 DUP2 SUB PUSH0 DUP4 ADD MSTORE PUSH2 0xB10 DUP2 DUP6 PUSH2 0xA31 JUMP JUMPDEST SWAP1 POP PUSH2 0xB1F PUSH1 0x20 DUP4 ADD DUP5 PUSH2 0xAE9 JUMP JUMPDEST SWAP4 SWAP3 POP POP POP JUMP JUMPDEST PUSH32 0x456D707479207465787400000000000000000000000000000000000000000000 PUSH0 DUP3 ADD MSTORE POP JUMP JUMPDEST PUSH0 PUSH2 0xB5A PUSH1 0xA DUP4 PUSH2 0x84D JUMP JUMPDEST SWAP2 POP PUSH2 0xB65 DUP3 PUSH2 0xB26 JUMP JUMPDEST PUSH1 0x20 DUP3 ADD SWAP1 POP SWAP2 SWAP1 POP JUMP JUMPDEST PUSH0 PUSH1 0x20 DUP3 ADD SWAP1 POP DUP2 DUP2 SUB PUSH0 DUP4 ADD MSTORE PUSH2 0xB87 DUP2 PUSH2 0xB4E JUMP JUMPDEST SWAP1 POP SWAP2 SWAP1 POP JUMP JUMPDEST PUSH32 0x4E487B7100000000000000000000000000000000000000000000000000000000 PUSH0 MSTORE PUSH1 0x11 PUSH1 0x4 MSTORE PUSH1 0x24 PUSH0 REVERT JUMPDEST PUSH0 PUSH2 0xBC5 DUP3 PUSH2 0x5FE JUMP JUMPDEST SWAP2 POP PUSH2 0xBD0 DUP4 PUSH2 0x5FE JUMP JUMPDEST SWAP3 POP DUP3 DUP3 ADD SWAP1 POP DUP1 DUP3 GT ISZERO PUSH2 0xBE8 JUMPI PUSH2 0xBE7 PUSH2 0xB8E JUMP JUMPDEST JUMPDEST SWAP3 SWAP2 POP POP JUMP JUMPDEST PUSH32 0x496E76616C696420646561646C696E6500000000000000000000000000000000 PUSH0 DUP3 ADD MSTORE POP JUMP JUMPDEST PUSH0 PUSH2 0xC22 PUSH1 0x10 DUP4 PUSH2 0x84D JUMP JUMPDEST SWAP2 POP PUSH2 0xC2D DUP3 PUSH2 0xBEE JUMP JUMPDEST PUSH1 0x20 DUP3 ADD SWAP1 POP SWAP2 SWAP1 POP JUMP JUMPDEST PUSH0 PUSH1 0x20 DUP3 ADD SWAP1 POP DUP2 DUP2 SUB PUSH0 DUP4 ADD MSTORE PUSH2 0xC4F DUP2 PUSH2 0xC16 JUMP JUMPDEST SWAP1 POP SWAP2 SWAP1 POP JUMP JUMPDEST PUSH32 0x5A65726F20416464726573732055736564000000000000000000000000000000 PUSH0 DUP3 ADD MSTORE POP JUMP JUMPDEST PUSH0 PUSH2 0xC8A PUSH1 0x11 DUP4 PUSH2 0x84D JUMP JUMPDEST SWAP2 POP PUSH2 0xC95 DUP3 PUSH2 0xC56 JUMP JUMPDEST PUSH1 0x20 DUP3 ADD SWAP1 POP SWAP2 SWAP1 POP JUMP JUMPDEST PUSH0 PUSH1 0x20 DUP3 ADD SWAP1 POP DUP2 DUP2 SUB PUSH0 DUP4 ADD MSTORE PUSH2 0xCB7 DUP2 PUSH2 0xC7E JUMP JUMPDEST SWAP1 POP SWAP2 SWAP1 POP JUMP JUMPDEST PUSH0 PUSH2 0xCC8 DUP3 PUSH2 0x5FE JUMP JUMPDEST SWAP2 POP PUSH32 0xFFFFFFFFFFFFFFFFFFFFFFFFFFFFFFFFFFFFFFFFFFFFFFFFFFFFFFFFFFFFFFFF DUP3 SUB PUSH2 0xCFA JUMPI PUSH2 0xCF9 PUSH2 0xB8E JUMP JUMPDEST JUMPDEST PUSH1 0x1 DUP3 ADD SWAP1 POP SWAP2 SWAP1 POP JUMP JUMPDEST PUSH0 DUP2 MLOAD SWAP1 POP SWAP2 SWAP1 POP JUMP JUMPDEST PUSH0 PUSH1 0x20 PUSH1 0x1F DUP4 ADD DIV SWAP1 POP SWAP2 SWAP1 POP JUMP JUMPDEST PUSH0 DUP3 DUP3 SHL SWAP1 POP SWAP3 SWAP2 POP POP JUMP JUMPDEST PUSH0 PUSH1 0x8 DUP4 MUL PUSH2 0xD59 PUSH32 0xFFFFFFFFFFFFFFFFFFFFFFFFFFFFFFFFFFFFFFFFFFFFFFFFFFFFFFFFFFFFFFFF DUP3 PUSH2 0xD1E JUMP JUMPDEST PUSH2 0xD63 DUP7 DUP4 PUSH2 0xD1E JUMP JUMPDEST SWAP6 POP DUP1 NOT DUP5 AND SWAP4 POP DUP1 DUP7 AND DUP5 OR SWAP3 POP POP POP SWAP4 SWAP3 POP POP POP JUMP JUMPDEST PUSH0 DUP2 SWAP1 POP SWAP2 SWAP1 POP JUMP JUMPDEST PUSH0 PUSH2 0xD9E PUSH2 0xD99 PUSH2 0xD94 DUP5 PUSH2 0x5FE JUMP JUMPDEST PUSH2 0xD7B JUMP JUMPDEST PUSH2 0x5FE JUMP JUMPDEST SWAP1 POP SWAP2 SWAP1 POP JUMP JUMPDEST PUSH0 DUP2 SWAP1 POP SWAP2 SWAP1 POP JUMP JUMPDEST PUSH2 0xDB7 DUP4 PUSH2 0xD84 JUMP JUMPDEST PUSH2 0xDCB PUSH2 0xDC3 DUP3 PUSH2 0xDA5 JUMP JUMPDEST DUP5 DUP5 SLOAD PUSH2 0xD2A JUMP JUMPDEST DUP3 SSTORE POP POP POP POP JUMP JUMPDEST PUSH0 PUSH0 SWAP1 POP SWAP1 JUMP JUMPDEST PUSH2 0xDE2 PUSH2 0xDD3 JUMP JUMPDEST PUSH2 0xDED DUP2 DUP5 DUP5 PUSH2 0xDAE JUMP JUMPDEST POP POP POP JUMP JUMPDEST JUMPDEST DUP2 DUP2 LT ISZERO PUSH2 0xE10 JUMPI PUSH2 0xE05 PUSH0 DUP3 PUSH2 0xDDA JUMP JUMPDEST PUSH1 0x1 DUP2 ADD SWAP1 POP PUSH2 0xDF3 JUMP JUMPDEST POP POP JUMP JUMPDEST PUSH1 0x1F DUP3 GT ISZERO PUSH2 0xE55 JUMPI PUSH2 0xE26 DUP2 PUSH2 0xA1F JUMP JUMPDEST PUSH2 0xE2F DUP5 PUSH2 0xD0F JUMP JUMPDEST DUP2 ADD PUSH1 0x20 DUP6 LT ISZERO PUSH2 0xE3E JUMPI DUP2 SWAP1 POP JUMPDEST PUSH2 0xE52 PUSH2 0xE4A DUP6 PUSH2 0xD0F JUMP JUMPDEST DUP4 ADD DUP3 PUSH2 0xDF2 JUMP JUMPDEST POP POP JUMPDEST POP POP POP JUMP JUMPDEST PUSH0 DUP3 DUP3 SHR SWAP1 POP SWAP3 SWAP2 POP POP JUMP JUMPDEST PUSH0 PUSH2 0xE75 PUSH0 NOT DUP5 PUSH1 0x8 MUL PUSH2 0xE5A JUMP JUMPDEST NOT DUP1 DUP4 AND SWAP2 POP POP SWAP3 SWAP2 POP POP JUMP JUMPDEST PUSH0 PUSH2 0xE8D DUP4 DUP4 PUSH2 0xE66 JUMP JUMPDEST SWAP2 POP DUP3 PUSH1 0x2 MUL DUP3 OR SWAP1 POP SWAP3 SWAP2 POP POP JUMP JUMPDEST PUSH2 0xEA6 DUP3 PUSH2 0xD05 JUMP JUMPDEST PUSH8 0xFFFFFFFFFFFFFFFF DUP2 GT ISZERO PUSH2 0xEBF JUMPI PUSH2 0xEBE PUSH2 0x6A7 JUMP JUMPDEST JUMPDEST PUSH2 0xEC9 DUP3 SLOAD PUSH2 0x9EF JUMP JUMPDEST PUSH2 0xED4 DUP3 DUP3 DUP6 PUSH2 0xE14 JUMP JUMPDEST PUSH0 PUSH1 0x20 SWAP1 POP PUSH1 0x1F DUP4 GT PUSH1 0x1 DUP2 EQ PUSH2 0xF05 JUMPI PUSH0 DUP5 ISZERO PUSH2 0xEF3 JUMPI DUP3 DUP8 ADD MLOAD SWAP1 POP JUMPDEST PUSH2 0xEFD DUP6 DUP3 PUSH2 0xE82 JUMP JUMPDEST DUP7 SSTORE POP PUSH2 0xF64 JUMP JUMPDEST PUSH1 0x1F NOT DUP5 AND PUSH2 0xF13 DUP7 PUSH2 0xA1F JUMP JUMPDEST PUSH0 JUMPDEST DUP3 DUP2 LT ISZERO PUSH2 0xF3A JUMPI DUP5 DUP10 ADD MLOAD DUP3 SSTORE PUSH1 0x1 DUP3 ADD SWAP2 POP PUSH1 0x20 DUP6 ADD SWAP5 POP PUSH1 0x20 DUP2 ADD SWAP1 POP PUSH2 0xF15 JUMP JUMPDEST DUP7 DUP4 LT ISZERO PUSH2 0xF57 JUMPI DUP5 DUP10 ADD MLOAD PUSH2 0xF53 PUSH1 0x1F DUP10 AND DUP3 PUSH2 0xE66 JUMP JUMPDEST DUP4 SSTORE POP JUMPDEST PUSH1 0x1 PUSH1 0x2 DUP9 MUL ADD DUP9 SSTORE POP POP POP JUMPDEST POP POP POP POP POP POP JUMP JUMPDEST DUP3 DUP2 DUP4 MCOPY PUSH0 DUP4 DUP4 ADD MSTORE POP POP POP JUMP JUMPDEST PUSH0 PUSH2 0xF84 DUP3 PUSH2 0xD05 JUMP JUMPDEST PUSH2 0xF8E DUP2 DUP6 PUSH2 0x84D JUMP JUMPDEST SWAP4 POP PUSH2 0xF9E DUP2 DUP6 PUSH1 0x20 DUP7 ADD PUSH2 0xF6C JUMP JUMPDEST PUSH2 0xFA7 DUP2 PUSH2 0x697 JUMP JUMPDEST DUP5 ADD SWAP2 POP POP SWAP3 SWAP2 POP POP JUMP JUMPDEST PUSH0 PUSH1 0x40 DUP3 ADD SWAP1 POP DUP2 DUP2 SUB PUSH0 DUP4 ADD MSTORE PUSH2 0xFCA DUP2 DUP6 PUSH2 0xF7A JUMP JUMPDEST SWAP1 POP PUSH2 0xFD9 PUSH1 0x20 DUP4 ADD DUP5 PUSH2 0x825 JUMP JUMPDEST SWAP4 SWAP3 POP POP POP JUMP INVALID LOG2 PUSH5 0x6970667358 0x22 SLT KECCAK256 JUMPI REVERT 0xDC SWAP6 PUSH5 0x29462E943B CODESIZE NUMBER 0xB3 SDIV SMOD SMOD 0x24 DUP5 SELFBALANCE SLOAD SHR 0xB2 BALANCE 0xD2 PUSH21 0x6BC3493BC9A60B64736F6C634300081C0033000000 "},"methodIdentifiers":{"createTodo(string,uint256)":"ece28c6c","markAsDone(uint256)":"d74de14d","updateTodo(uint256)":"61a41c08"}}}}}