{
  "_format": "hh3-artifact-1",
  "contractName": "FactoryEscrow",
  "sourceName": "contracts/Escrow.sol",
  "abi": [
    {
      "inputs": [
        {
          "internalType": "address",
          "name": "_seller",
          "type": "address"
        },
        {
          "internalType": "uint256",
          "name": "_amount",
          "type": "uint256"
        }
      ],
      "name": "createOrder",
      "outputs": [
        {
          "internalType": "uint256",
          "name": "",
          "type": "uint256"
        }
      ],
      "stateMutability": "nonpayable",
      "type": "function"
    },
    {
      "inputs": [
        {
          "internalType": "uint256",
          "name": "_orderId",
          "type": "uint256"
        }
      ],
      "name": "fundOrder",
      "outputs": [],
      "stateMutability": "payable",
      "type": "function"
    },
    {
      "inputs": [
        {
          "internalType": "uint256",
          "name": "_orderId",
          "type": "uint256"
        }
      ],
      "name": "getStatus",
      "outputs": [
        {
          "internalType": "enum FactoryEscrow.Status",
          "name": "",
          "type": "uint8"
        }
      ],
      "stateMutability": "view",
      "type": "function"
    },
    {
      "inputs": [],
      "name": "orderCount",
      "outputs": [
        {
          "internalType": "uint256",
          "name": "",
          "type": "uint256"
        }
      ],
      "stateMutability": "view",
      "type": "function"
    },
    {
      "inputs": [
        {
          "internalType": "uint256",
          "name": "",
          "type": "uint256"
        }
      ],
      "name": "orders",
      "outputs": [
        {
          "internalType": "address",
          "name": "buyer",
          "type": "address"
        },
        {
          "internalType": "address",
          "name": "seller",
          "type": "address"
        },
        {
          "internalType": "uint256",
          "name": "amount",
          "type": "uint256"
        },
        {
          "internalType": "enum FactoryEscrow.Status",
          "name": "status",
          "type": "uint8"
        }
      ],
      "stateMutability": "view",
      "type": "function"
    },
    {
      "inputs": [
        {
          "internalType": "uint256",
          "name": "_orderId",
          "type": "uint256"
        }
      ],
      "name": "redeemOrder",
      "outputs": [],
      "stateMutability": "nonpayable",
      "type": "function"
    },
    {
      "inputs": [
        {
          "internalType": "uint256",
          "name": "_orderId",
          "type": "uint256"
        }
      ],
      "name": "refundOrder",
      "outputs": [],
      "stateMutability": "nonpayable",
      "type": "function"
    }
  ],
  "bytecode": "0x6080604052348015600e575f5ffd5b5061086d8061001c5f395ff3fe60806040526004361061006e575f3560e01c80636c16b5451161004c5780636c16b545146100f9578063a85c38ef14610118578063b9c4d0a714610178578063c018c4571461018b575f5ffd5b80632453ffa8146100725780634a58ca0e1461009a5780635c622a0e146100bb575b5f5ffd5b34801561007d575f5ffd5b5061008760015481565b6040519081526020015b60405180910390f35b3480156100a5575f5ffd5b506100b96100b4366004610750565b6101aa565b005b3480156100c6575f5ffd5b506100ec6100d5366004610750565b5f9081526020819052604090206003015460ff1690565b604051610091919061079b565b348015610104575f5ffd5b506100876101133660046107a9565b610338565b348015610123575f5ffd5b50610168610132366004610750565b5f6020819052908152604090208054600182015460028301546003909301546001600160a01b0392831693919092169160ff1684565b60405161009194939291906107de565b6100b9610186366004610750565b610492565b348015610196575f5ffd5b506100b96101a5366004610750565b6105cf565b5f81815260208190526040902080546001600160a01b031633146102155760405162461bcd60e51b815260206004820181905260248201527f4f6e6c79207468652062757965722063616e2072656c656173652066756e647360448201526064015b60405180910390fd5b6002600382015460ff16600481111561023057610230610767565b1461027d5760405162461bcd60e51b815260206004820152601d60248201527f46756e6473206d757374206265206465706f7369746564206669727374000000604482015260640161020c565b6003818101805460ff19169091179055600181015460028201546040515f926001600160a01b031691908381818185875af1925050503d805f81146102dd576040519150601f19603f3d011682016040523d82523d5f602084013e6102e2565b606091505b50509050806103335760405162461bcd60e51b815260206004820152601960248201527f5472616e7366657220746f2073656c6c6572206661696c656400000000000000604482015260640161020c565b505050565b5f6001600160a01b0383166103885760405162461bcd60e51b8152602060048201526016602482015275496e76616c69642073656c6c6572206164647265737360501b604482015260640161020c565b5f82116103d75760405162461bcd60e51b815260206004820181905260248201527f416d6f756e74206d7573742062652067726561746572207468616e207a65726f604482015260640161020c565b60018054905f6103e683610813565b9091555050604080516080810182523381526001600160a01b03858116602080840191825283850187815260016060860181815281545f9081529384905296909220855181549086166001600160a01b031991821617825593518184018054919096169416939093179093559151600282015592516003840180549394939192909160ff19169083600481111561047f5761047f610767565b0217905550506001549150505b92915050565b5f81815260208190526040902080546001600160a01b031633146105035760405162461bcd60e51b815260206004820152602260248201527f4f6e6c79207468652062757965722063616e2066756e642074686973206f726460448201526132b960f11b606482015260840161020c565b806002015434146105565760405162461bcd60e51b815260206004820152601960248201527f496e636f72726563742045544820616d6f756e742073656e7400000000000000604482015260640161020c565b6001600382015460ff16600481111561057157610571610767565b146105be5760405162461bcd60e51b815260206004820152601d60248201527f4f72646572206973206e6f7420696e2050656e64696e67207374617465000000604482015260640161020c565b600301805460ff1916600217905550565b5f81815260208190526040902060018101546001600160a01b031633146106475760405162461bcd60e51b815260206004820152602660248201527f4f6e6c79207468652073656c6c65722063616e20617574686f72697a652061206044820152651c99599d5b9960d21b606482015260840161020c565b6002600382015460ff16600481111561066257610662610767565b146106a55760405162461bcd60e51b815260206004820152601360248201527213dc99195c881a5cc81b9bdd08199d5b991959606a1b604482015260640161020c565b60038101805460ff19166004179055805460028201546040515f926001600160a01b031691908381818185875af1925050503d805f8114610701576040519150601f19603f3d011682016040523d82523d5f602084013e610706565b606091505b50509050806103335760405162461bcd60e51b81526020600482015260166024820152751499599d5b99081d1c985b9cd9995c8819985a5b195960521b604482015260640161020c565b5f60208284031215610760575f5ffd5b5035919050565b634e487b7160e01b5f52602160045260245ffd5b6005811061079757634e487b7160e01b5f52602160045260245ffd5b9052565b6020810161048c828461077b565b5f5f604083850312156107ba575f5ffd5b82356001600160a01b03811681146107d0575f5ffd5b946020939093013593505050565b6001600160a01b03858116825284166020820152604081018390526080810161080a606083018461077b565b95945050505050565b5f6001820161083057634e487b7160e01b5f52601160045260245ffd5b506001019056fea2646970667358221220ff34adf062fb7c27551ca9a114d12837a28a534b88ff07825c9fa089cad4a58364736f6c634300081c0033",
  "linkReferences": {},
  "deployedLinkReferences": {},
  "immutableReferences": {},
  "inputSourceName": "project/contracts/Escrow.sol",
  "buildInfoId": "solc-0_8_28-ce48d09d2d6476aea7e8d000e73f2379bc255027"
}